:020000021000EC
:1090000000600020499201000192010003920100DA
:109010000592010007920100099201000000000082
:109020000000000000000000000000000B920100A2
:109030000D920100000000000F920100119201004A
:109040001DB3010013920100A5B7010013920100A6
:10905000139201000000000025B6010013920100E8
:109060001392010013920100139201001392010068
:109070001392010013920100139201001392010058
:10908000139201001DC5010013920100139201000B
:10909000139201001392010075D90100139201008F
:1090A0001392010013920100000000000000000074
:1090B00013920100D59D0100000000000000000097
:1090C00000000000000000000000000000000000A0
:1090D0000000000000000000000000000000000090
:1090E0000000000000000000000000000000000080
:1090F0000000000000000000000000000000000070
:10910000000000000000000000000000000000005F
:10911000000000000000000000000000000000004F
:10912000000000000000000000000000000000003F
:10913000000000000000000000000000000000002F
:10914000000000000000000000000000000000001F
:10915000000000000000000000000000000000000F
:1091600000000000000000000000000000000000FF
:1091700000000000000000000000000000000000EF
:1091800000000000000000000000000000000000DF
:1091900000000000000000000000000000000000CF
:1091A00000000000000000000000000000000000BF
:1091B00000000000000000000000000000000000AF
:1091C000000000000000000000000000000000009F
:1091D000000000000000000000000000000000008F
:1091E000000000000000000000000000000000007F
:1091F000000000000000000000000000000000006F
:10920000FEE7FEE7FEE7FEE7FEE7FEE7FEE7FEE736
:10921000FEE7FEE709480068094909680A280AD1FB
:10922000002908D1074802686FF070031A404FF018
:1092300040031A43026000F009B80000300100103A
:1092400034010010E40E0040FFF7E4BF0B484FF07C
:109250000701884385460A48804700F019B8094845
:1092600009490A4A884207D0521A05D003780130CA
:109270000B700131013AF9D1704700000060002005
:1092800095A1010028E70100C8220020C822002083
:1092900039493A480A1A02D0072291438D46384983
:1092A00038480A1A06D00722914381F3098802221E
:1092B00082F3148834483549354A00F03EF8354881
:1092C0003549364A00F039F835483649364A00F013
:1092D00034F836483649374A00F02FF836483749CF
:1092E000374A00F02AF837483749384A00F025F85D
:1092F00037483849384A00F020F8384838490022C1
:1093000000F033F837483849002200F02EF837488B
:109310003749091A05F050F8364A9047244825493C
:10932000884205D00268043003B4904703BCF7E7D5
:1093300000200021304A9047FEE7884214D0521A9C
:1093400012D003460B4313430324234206D1036880
:1093500004300B600431043AF9D1704703780130CE
:109360000B700131013AF9D17047884202D0027086
:109370000130FAE77047000000600020005800202C
:10938000006000200060002064F60100C822002078
:1093900010230020FC930100FC93010024E601004F
:1093A00064F60100C8220020C822002028E701003E
:1093B00028E7010028E7010028E7010028E701006D
:1093C00028E7010028E7010028E7010061F6010015
:1093D000ACF60100102300201023002010230020F1
:1093E000F4360020F4360020F4360020F436002055
:0C93F000F43E00205F920100C1980100D3
:1093FC0072DF704773DF704776DF70477ADF704734
:10940C007CDF70477FDF70478FDF7047A8DF7047C6
:10941C00B1DF704762DF7047037813B1022B00D0C5
:10942C007047024B01221A70704700BFE4220020E3
:10943C0002F02ABD08B5094B0A46197851B1002132
:10944C0019700146064802F03BFB28B1BDE8084004
:10945C0002F01ABD20BFF0E708BD00BFE4220020D7
:10946C00ACF1010073B504464068002846D0861E56
:10947C00324600F2FE30002332F9021F90420B44B8
:10948C00FAD1002BB8BF03F2FF135A1200231D466A
:10949C0036F9021F891A4943CB1845EBE175B042E6
:1094AC00F6D15B0A53EAC55343D0591C49081A46F6
:1094BC00914235D39AB113460021012B36D18B4002
:1094CC00D21A4FF47A7042433C23CA405A43B2FB3F
:1094DC00F0F203FB012202F2511222EAE2720A219B
:1094EC00B2FBF1F301FB132200924021134A144802
:1094FC0004F0A8FC01461248FFF79CFF2378D3B177
:10950C00104A11481378013303F001034FF4007132
:10951C0000EB8320137002B0BDE8704000F09CBDDE
:10952C00B3FBF1F008440A464108C1E75B0801317E
:10953C00C3E71A46D3E702B070BD00BF28E70100AD
:10954C0010230020F8230020FA23002008B5064B36
:10955C0001211878FFF74EFF08B102F095FCBDE829
:10956C000840002000F05EBBE022002003883B2B6B
:10957C0073B5044600F0EC8018D8132B00F0AF80C4
:10958C0006D8102B59D0112B00F0888002B070BD7A
:10959C00212BFBD100238088ADF8043001A9FFF703
:1095AC0033FF0028F2D002F06FFCEFE7522B00F0F3
:1095BC00C780562B00F0CC80502BE7D1674BC2886C
:1095CC001B889A42E2D1664D664B028AED1AED0871
:1095DC00062A4FEA054540F0AF8000F1110117341F
:1095EC0000230A2011F8012F303AD6B2092E00F2CE
:1095FC008580A14200FB0323F4D101225A490C6857
:10960C00002A7DD0A3427BD1584B594801221A70B5
:10961C0002F049FD024620B1564945F0010003F025
:10962C00F7FE45F003005449224603F0F1FE0120F9
:10963C0002B0BDE8704000F0F5BA4A4B484D4F49B6
:10964C00ED1AED082D0445F00305284603F0DCFE69
:10965C00012000F0E7FA002000F0F0FA484BA18856
:10966C004848198001F098FC08B102F00DFC02F09A
:10967C00C9FB08B102F008FC3C4B3D4800224FF4FA
:10968C00F0211A7002F0F7FC08B102F0FDFB3E4924
:10969C00284602B0BDE8704003F0B6BE314B3048EE
:1096AC003A49C01AC008000440F0030003F0ACFEB5
:1096BC00012000F0C3FA324B4FF6FF721A8002F011
:1096CC00B7FB08B102F0E0FB294802F0ECFC274B99
:1096DC0000221A7002B0BDE87040FFF737BF28486F
:1096EC00002300881A468521FFF78CFE00283FF4E2
:1096FC004DAF02B0BDE8704002F0C6BB00227DE762
:10970C0045F002002249224603F08BFE1C4B1888C0
:10971C004FF6FF7398423FF439AF1321FFF76CFEFD
:10972C00024600283FF432AF1A4945F0010002B05E
:10973C00BDE8704003F06CBE174945F00200F6E737
:10974C000F4800231A4619460088FFF761FECDE743
:10975C00A0881321FFF750FEC8E700BF902300201C
:10976C00C0E6010090E601009C2300209A23002013
:10977C00D823002088E70100A8E7010038E70100A2
:10978C00E2220020A023002042E701007BE7010039
:10979C00D4E701000AE8010025E8010038B5104BB8
:1097AC001B78E3B90F4D2A884FF6FF739A4216D0F7
:1097BC000D4B0E4C0E49E41AE408240444F003004B
:1097CC0003F022FE28881321FFF716FE024630B163
:1097DC0044F001000749BDE8384003F019BE38BD1C
:1097EC009A230020E222002090E60100C0E601004E
:1097FC0059E8010080E8010008B503784BB9054B26
:10980C003B211888FFF7F8FD18B1BDE8084002F0BD
:10981C003BBB08BDE22200200D2810B50C461AD126
:10982C000F4B10481049C01AC008000440F0030048
:10983C0003F0EAFD0D4B0E491888224601F092FC0C
:10984C0030F008020BD043F20202904207D043F2F0
:10985C000142904203D0BDE8104002F015BB10BD90
:10986C0090E60100C0E60100A6E80100E22200201B
:10987C00BC23002010B50A4B0A4CE41AE40824045B
:10988C0044F0030402203AB100F0CCF9064920461A
:10989C00BDE8104003F0B8BD00F0D0F90349F6E77D
:1098AC0090E60100C0E60100C0E80100D1E801002B
:1098BC0002F0EABA80B50321AEB00423CDE91F1340
:1098CC004FF0FF33CDE9213300232393ADF89030D3
:1098DC001FAC4FF0EB732593B34AB44806232146D3
:1098EC008DF8983002F022F808B102F0CDFAB04BA6
:1098FC0009AA03F1180618685968154603C50833F8
:10990C00B3422A46F7D11B782B70182109A8A94E0F
:10991C00FFF790FD642546F001064FF47A40B047FE
:10992C00013DFAD1A44B93E8070042F2200384E8EE
:10993C000700A249ADF88430204600F0C3FA08B104
:10994C0002F0A2FA4FF48041002003F0A3FB08B10F
:10995C0002F09AFA03F0E0FA012000F08AF902F022
:10996C004DFB08B102F090FA954A9648002102F09E
:10997C0077FB08B102F088FA934840F233320121A8
:10998C0002F0EAF908B102F07FFA03F0A9F908B184
:10999C0002F07AFA03F090FF08B102F075FA002396
:1099AC00214601201F9304F019F808B102F06CFA5B
:1099BC00204604F0D1F808B102F066FA112383496D
:1099CC008DF840300C2210A8FFF71AFD08B102F0F8
:1099DC005BFA0023ADF880307D4B1F9320464FF48B
:1099EC00C873ADF88230FFF709FD08B102F04CFAEC
:1099FC007848002101F0F8F908B102F045FA00238B
:109A0C0002AE01937448754B0293314601F0B2FAE1
:109A1C0008B102F039FA724B7248019301A901F0B6
:109A2C0033FB08B102F030FA6F4B10AD03F11007A5
:109A3C00186859682A4603C20833BB421546F7D149
:109A4C006A4910A8FFF7E6FC08B102F01DFA674D51
:109A5C00674A2B788DF80E3003A941F2235301206D
:109A6C00ADF80C30FFF7D2FC08B102F00DFA1D2254
:109A7C0000210DF17F0004F029FD41F22453ADF8D3
:109A8C007C302B788DF87E300623ADF8803040F694
:109A9C000143ADF8883001238DF88D308DF88E3070
:109AAC00534B544A1888214601F0F9F808B102F0DA
:109ABC00EBF9514B514D5249ED1AED082D0445F07F
:109ACC000305284603F0A0FC41F22353ADF80830FF
:109ADC00444B3C229B7C8DF80A30002110A804F0EA
:109AEC00F5FC02238DF840303C2240F2016300214A
:109AFC002046ADF8423004F0E9FC424A249601239A
:109B0C0052F8041CADF88C3010A800F008FD08B118
:109B1C0002F0BAF93C4B2046996803F10C0200F0B4
:109B2C00FEFC08B102F0B0F91822002103A804F0E1
:109B3C00CDFC01238DF821308DF80C30324933489F
:109B4C00402303AA0593FFF753FC08B102F09CF9DC
:109B5C0014220021204604F0B9FC4FF4A0334FF43A
:109B6C00A022CDE9202303238DF88830284B2493A1
:109B7C002046284B259300F099FF08B102F084F998
:109B8C0000F02EFA244B2549002228461A6003F0D7
:109B9C003FFC2349284603F037FCFFF7D7FC20BFD6
:109BAC0040BF20BFFBE700BF25940100ACF10100D2
:109BBC004AE90100A0F10100B4F101007194010027
:109BCC00A9970100A8F10100C8220020E3E80100D8
:109BDC005000A000AC230020A02300203D940100E5
:109BEC0081980100BC230020C0F101008E230020CD
:109BFC00982300209023002090E60100C0E601008D
:109C0C00F0E80100D4220020D0220020E022002025
:109C1C0005980100BD9801009C23002013E9010068
:109C2C0032E90100044B1A5C012393404FF0A0422F
:109C3C00C2F80C35704700BFD0F10100044B1A5C20
:109C4C00012393404FF0A042C2F80835704700BF83
:109C5C00D0F1010008B50020FFF7F0FF0120FFF75D
:109C6C00EDFF0220FFF7EAFFBDE808400320FFF7F5
:109C7C00E5BFC20708B501460CD54FF0A04303223F
:109C8C00C3F84427C3F84827C3F84C27C3F8502718
:109C9C00FFF7E0FF8B070AD54FF0A0430C22C3F867
:109CAC003427C3F83827C3F83C27C3F8402708BD2E
:109CBC00032811D8012A0AD101290FD100F10E0273
:109CCC00D2B20D4B00EB40001A5400207047012912
:109CDC00F7D0022904D049B1072070470022F8E7D9
:109CEC00054B00EB400003445A70EEE7024B00EBCF
:109CFC00400003449A70E8E7FA2B002008B50122D3
:109D0C0002210020FFF7D4FF08B1072810D1072249
:109D1C0002210120FFF7CCFF08B1072808D1002150
:109D2C000A220846FFF7C4FF10B1072808BF00201D
:109D3C0008BD00000388102B10B502D0112B22D0C7
:109D4C0010BD194C2168D1B901220846FFF7B0FFAC
:109D5C0008B107280FD1072202210120FFF7A8FF25
:109D6C0008B1072807D1042202210020FFF7A0FF29
:109D7C0028B1072803D00D4B1B6803B19847236803
:109D8C0001332360DCE7084A1368013B1360002BA6
:109D9C00D6D1FFF7B3FF0028D2D0044B1B68002BA1
:109DAC00CED0BDE810401847082C00200C2C002009
:109DBC0000F1804000F5E830002382B003600368B6
:109DCC000193019B02B070471FB53C493C4CD1F844
:109DDC000021002A47D04FF48070FFF7E9FFA37CE5
:109DEC00DA4302F0010204EB8201496811B9617C8B
:109DFC0002292DD1607C022818BF04EB83034FF09D
:109E0C0000010BBF01235868637459604FF00103C4
:109E1C008DF80C10E1740EBF02910290A2748DF8B3
:109E2C000430236801A89847637C022B01D10123DD
:109E3C006374237D53B101238DF804300023029306
:109E4C008DF80C30237501A82368984704B010BD19
:109E5C00E37C002BE8D18DF80430029301238DF8BC
:109E6C000C30E374DDE7D1F80431002BE1D04FF472
:109E7C008270FFF79DFFC1F80025A37C627404EB90
:109E8C0083038DF80C2059688DF8042021B15A6099
:109E9C000291236801A89847A37CDB4303F00103DC
:109EAC0004EB83035A682AB1029200225A6001A87B
:109EBC00236898470023A374BBE700BF00D0014080
:109ECC00102C00202DE9F0413E4B3F4D3F4EED1A3A
:109EDC00347CED0802462D0464B1082002F074FFB6
:109EEC003B4A3C49034645F0020003F09AFA08202D
:109EFC00BDE8F08190F808C0BCF1500F02D8477A49
:109F0C00502F0BD9072002F05FFF314A314903462D
:109F1C0045F0020003F085FA0720E9E731602E498D
:109F2C0043687482C6E901447474C1F804354378FB
:109F3C0000785B0000F0010003F002030343C1F85A
:109F4C000835C1F818C5C1F81C7593784FF0A040BE
:109F5C0003F5E0774FF0030840F82780012707FA54
:109F6C0003FCC0F80CC592F803C00CF5E07E40F879
:109F7C002E40C1F840354FF48070C1F844C5FFF74E
:109F8C0017FF4FF48470FFF713FF4FF48270FFF745
:109F9C000FFFC1F80483937A104A5B01DBB282F89D
:109FAC001D334FF0005313602046377402F00CFF42
:109FBC00074A0849034645EA080003F032FA2046EE
:109FCC0096E700BF90E60100A0E60100102C0020EF
:109FDC00E3F1010063E9010000D0014000E100E081
:109FEC0010B5174B174C18495A7C641AE408240412
:109FFC0002F0FF00D2B15B7C012B0BD1002002F0F0
:10A00C00E3FE124A1249034644F0030003F009FA36
:10A01C0000200AE0112002F0D7FE0C4A0C4903463E
:10A02C0044F0020003F0FDF9112010BD02225A7415
:10A03C0001221A75074B4FF00052C3F80021DEE7DE
:10A04C00102C0020A0E6010090E60100D4F10100E4
:10A05C0063E9010000E100E070B51E4A157C002D9B
:10A06C0032D0537C032B31D090B30B0430D41A4B29
:10A07C004FF00054C3F88040537C947C023B18BFD3
:10A08C00012323EA040302EB83046668D6B96060FB
:10A09C0002EB4303114C9981022DC4F86005C4F8FE
:10A0AC00641509D0022313740122C4F800254FF45F
:10A0BC008070FFF77DFE22600020074B4FF00052AE
:10A0CC001A6070BD1120F8E70820FAE71120F8E7B4
:10A0DC000720F6E7102C002000E100E000D0014042
:10A0EC004FF0704393F8E02F062A10D1D3F8E42FE9
:10A0FC0012070CD1D3F8E80F00F0F003302B08D086
:10A10C0000F0E000A0F14003584258417047002095
:10A11C007047012070474FF0704393F8E02F062AE8
:10A12C000CD1D3F8E42F120708D1D3F8E80F00F0C4
:10A13C00F000A0F13003584258417047002070479E
:10A14C004FF08053D3F830210A2A03D1D3F834319D
:10A15C00012B16D94FF0704393F8E02F062A10D13B
:10A16C00D3F8E42F12070CD1D3F8E80F00F0F0036A
:10A17C00302B06D000F0E000A0F1400358425841CB
:10A18C00704701207047000008B5FFF7A9FF40B1E8
:10A19C004FF08053984AD3F82433C3F30423C2F806
:10A1AC004035FFF7B8FF10B1944B954A5A67FFF74B
:10A1BC00C7FF48B14FF080534FF08042D3F8443280
:10A1CC00C3F34233C2F83C35FFF7A5FF30B18D4ADB
:10A1DC00D2F8FC3023F08073C2F8FC30FFF7B0FFEC
:10A1EC0040B14FF080430022C3F80C21C3F810217A
:10A1FC00C3F83825FFF78FFF20B14FF080430322BF
:10A20C00C3F8A025FFF787FF60B17F4B0522C3F889
:10A21C0010260122C3F888260022C3F818263F22F4
:10A22C00C3F814264FF08053D3F830210A2A03D1F7
:10A23C00D3F83431012B0FD94FF0704393F8E02F42
:10A24C00062A09D1D3F8E42F110705D1D3F8E83F3A
:10A25C0003F0F003502B46D14FF080526B4BD2F8E9
:10A26C000414C3F82015D2F80814C3F82415D2F836
:10A27C000C14C3F82815D2F81014C3F82C15D2F806
:10A28C001414C3F83015D2F81814C3F83415D2F8D6
:10A29C001C14C3F84015D2F82014C3F84415D2F896
:10A2AC002414C3F84815D2F82814C3F84C15D2F866
:10A2BC002C14C3F85015D2F83014C3F85415D2F836
:10A2CC003414C3F86015D2F83814C3F86415D2F8F6
:10A2DC003C14C3F86815D2F84014C3F86C15D2F8C6
:10A2EC004424C3F870254FF08053D3F830210A2A48
:10A2FC0006D1D3F834311BB9454BFB22C3F81825D2
:10A30C00FFF7EEFE48B14FF080534FF08042D3F888
:10A31C00583203F04F03C2F8E43EFFF711FF48B187
:10A32C004FF08043D3F80024D20744BF6FF00102F2
:10A33C00C3F800244FF08053D3F83021062A4BD1B8
:10A34C00D3F83431062B40D04FF08042D2F8E43EA3
:10A35C0043F00F03C2F8E43E4FF01023D3F8002271
:10A36C00002A03DBD3F80432002B40DA294B0122FC
:10A37C00C3F80425D3F80024002AFBD04FF0102298
:10A38C001521C2F80012D3F80024002AFBD04FF09C
:10A39C0010231522C3F804221E4BD3F80024002AE4
:10A3AC00FBD00022C3F80425D3F80024002AFBD0EC
:10A3BC00BFF34F8F1349184BCA6802F4E062134382
:10A3CC00CB60BFF34F8F00BFFDE7144AD2F83C3788
:10A3DC0043F48063C2F83C374FF08053D3F83021FC
:10A3EC000A2AB1D1D3F83431002BADD1B4E70C4BE0
:10A3FC000C4A1A6008BD00BF0030014000C0074085
:10A40C000DF0ADBA00ED00E00050004000C000407F
:10A41C0000F0004000E001400400FA05001000408C
:10A42C00E82200200090D0036DDF704779DF704781
:10A43C007DDF704764DF70472DE9F04F85B0002653
:10A44C000E9CBDF83CB0B4F800A0019107469046B4
:10A45C001D46B1463A884A4505DC002E37D100200E
:10A46C0005B0BDE8F08F7A6852F8290003900022FD
:10A47C000DF10B0103A8FFF7DDFF0028F0D19DF8CB
:10A48C000B20424520D1228886F0010002EB080106
:10A49C0001EB4001594524DC46B9013292B2019BD3
:10A4AC002280AB542288013292B222802A440DF1D0
:10A4BC000B0103A8FFF7BEFF0028D1D121889DF81E
:10A4CC000B200A442280012609F10109C2E72388E6
:10A4DC00013BA3EB0A039BB2FF2B02D805F80A3011
:10A4EC00BDE70C20BCE72DE9F341089FBDF82480A3
:10A4FC001546CDE90078022204461E46FFF79CFF64
:10A50C0050B93346102229462046CDE9087802B0CE
:10A51C00BDE8F041FFF790BF02B0BDE8F0812DE936
:10A52C00F04F0023178885B0138090F82D30064625
:10A53C000D46144653B3082F40F29E8102A8FFF734
:10A54C0073FF002840F0E1802388DDF80910082211
:10A55C00EA54238801339BB21B222380EA542388BC
:10A56C0001339BB2EA182380E950BDF80D3093807B
:10A57C0023889DF8082006339BB2012A94BF002241
:10A58C0001222380EA54238801332380B37803B358
:10A59C0023880433BB4200F26F8102A8FFF746FF09
:10A5AC00002840F0B28023880322EA542388013328
:10A5BC009BB219222380EA542388BDF8082001336A
:10A5CC009BB2E9182380EA54120A4A70238802339A
:10A5DC002380F278A2B12388D91CB94200F24C81B5
:10A5EC000221E954238801339BB201212380E954D1
:10A5FC0023880B449BB22380EA5423880B4423808A
:10A60C007268B2B12388D91CB94200F2358102219B
:10A61C0092F90020E954238801339BB20A2123804C
:10A62C00E954238801339BB22380EA5423880133F5
:10A63C0023803389002B5DD1338A53B1CDE9004798
:10A64C002B460722032106F11000FFF74CFF0028D0
:10A65C005BD1338B53B1CDE900472B461522142126
:10A66C0006F11800FFF73FFF00284ED1326A002A8E
:10A67C004ED1D6F82480B8F1000F31D0B8F80430A0
:10A68C002188981C8A1C0244BA4200F2F580FE28EC
:10A69C0000F2F28003336B54238801339BB2FF2208
:10A6AC002380EA54238801339BB22380B8F800201E
:10A6BC00EA54E918120A4A702088023080B22080CD
:10A6CC00B8F8042062B1D8F80810002900F0EB802B
:10A6DC00284403F0C9FE2388B8F8042013442380CF
:10A6EC0096F82C30002B59D13378002B40F0988001
:10A6FC0000200AE0CDE900472B460622022106F194
:10A70C000800FFF7F0FE002896D005B0BDE8F08FEA
:10A71C00B4F800C00CF10603BB4200F2AD80118806
:10A72C00052940F2C0806FF4486E01EB0E039BB21A
:10A73C004FF27D3E734540F2B6805388052B40F2B4
:10A74C00B2806FF44860181880B2704540F2AB804C
:10A75C004FF6FF70814202D0994200F2A48005238B
:10A76C0005F80C30238801339BB212212380E95465
:10A77C00238801339BB223801188E954E818090A15
:10A78C004170238802339BB223805288EA54E91823
:10A79C00120A4A702388023323806AE7B36A002BBB
:10A7AC0000F081804FF000094FF00C0A4FF0160BAF
:10A7BC0096F82C305FFA89F2934295D9B16A0AFB6C
:10A7CC0002F201EB0208B8F80430981CFE2853D8AA
:10A7DC00208803332B54238801339BB2238005F844
:10A7EC0003B0238801339BB223808A5AEA54E918B8
:10A7FC00120A4A702088023080B22080B8F80420F7
:10A80C005AB1D8F8081000294DD0284403F02CFE7A
:10A81C002388B8F804201344238009F10109C7E701
:10A82C003288012A3FD02288901CB84224D8012BB0
:10A83C0004D17378023313449F421DD3023FBF1AD5
:10A84C00BFB202A92844ADF80870FFF7F1FD00284B
:10A85C007FF45BAF3178BDF8083002291FD07278D5
:10A86C009A4201D3BB4209D901291AD1974293B21A
:10A87C0006D30821FE2B05D90C2046E70921F9E760
:10A88C003B4608212288581CA8542288013292B2D7
:10A89C002280A954228801321344238028E7BB422A
:10A8AC00ECD93B46E5E707202FE775DF704776DFED
:10A8BC0070477ADF70477BDF70470000034B1A88C4
:10A8CC0082420CBF18460020704700BF4C2C002061
:10A8DC00024B9B6903B11847704700BF302C002016
:10A8EC0073B585B22846FFF7E9FF044668B1174EE9
:10A8FC00027A337B9A4211D200F10A012846FFF703
:10A90C00D4FF20B9237A0133237202B070BD112811
:10A91C00FBD002B0BDE87040FFF7DABF0023037232
:10A92C00337C43B13B212846FFF7C1FF30F00803CD
:10A93C0001D0FFF7CDFF7369002BE6D000228DF814
:10A94C000420ADF8065001A89847DEE7302C002013
:10A95C0013B50B46497A02460E4871B9D0E901414C
:10A96C00187A002808BF2146586801F084FB78B19A
:10A97C0002B0BDE81040FFF7ABBF0021197243696C
:10A98C0033B101218DF80410ADF8062001A89847C9
:10A99C0002B010BD302C00204B8802889A4213D88C
:10A9AC0042889A4210D383888A8840F2F3118B42F2
:10A9BC0094BFD81A581A90420B448CBF0020012027
:10A9CC00934238BF00207047002070470388122B39
:10A9DC0070B5014659D004D8102B1ED0112B44D081
:10A9EC0070BD502BFCD12F4BC288DB899A42F7D11A
:10A9FC00038A022BF4D186883046FFF75FFF0546A9
:10AA0C000028EDD001F1120000F045F938BB686860
:10AA1C0001F049FB0028E3D009E0C37B012BDFD117
:10AA2C004FF6FF70FFF74AFF054620B90420BDE83A
:10AA3C007040FFF74DBF1C4A8E88068000230372BE
:10AA4C001368C0F80A305368C0F80E3010310A3061
:10AA5C00FFF7A2FF134B6872DB89002BC0D129468C
:10AA6C003046BDE87040FFF773BF8088FFF726FFC4
:10AA7C0004460028B4D0406801F015FB08B1FFF77C
:10AA8C0027FF4FF6FF732380AAE786883046FFF72F
:10AA9C0015FF05460028A3D008310A30FFF77CFFCC
:10AAAC006872DCE7302C0020282C0020F8B5064614
:10AABC0050B305460FCD154F3C460FC495E8070023
:10AACC0084E807003068124C3C60B8B1FFF7F1FE27
:10AADC0098B9326813682360536863600D4A4FF667
:10AAEC00FF73104613800C4B40F8043F0B4A0021B7
:10AAFC0001F0B6FA002818BF0320F8BD2046FFF776
:10AB0C00DAFE0028EAD0F8E70E20F6E7302C002019
:10AB1C00282C00204C2C0020602C0020EDA80100DB
:10AB2C000AB101F08FBD01F096BD73B50191019C86
:10AB3C0006466CB100252C46294601A801F095FD6E
:10AB4C0018B106EB440301349D800135142DF3D16B
:10AB5C003046346002B070BD2DE9F047038884881C
:10AB6C00103B8CB005460A2B21D8DFE803F00640D9
:10AB7C0020202020202020654700DFF8D080D8F846
:10AB8C000830DB430093D8F80410684601F099FDB7
:10AB9C00009901A8FFF7C9FF0DF106090027019BD9
:10ABAC009F4207D3132C12D9042001F06DF90CB07D
:10ABBC00BDE8F08739F802AF00260136514608EBA4
:10ABCC00860001F048FD1E2EF7D10137E7E720483B
:10ABDC00214601F037FD1F48214601F033FDEB7B88
:10ABEC00012BE4D01C48214601F02CFDDFE718486E
:10ABFC0021460CB0BDE8F04701F02DBD027A174894
:10AC0C003F2A4FEA1215214694BF00220122FFF77A
:10AC1C0087FF022D94BF0022012211482146FFF725
:10AC2C007FFF012D0F4894BF0022012221460CB05A
:10AC3C00BDE8F047FFF774BF037A002BB7D1427A17
:10AC4C000648C2F3C0022146F1E700BF802C002069
:10AC5C00882C0020842C00208C2C0020982C002088
:10AC6C00942C0020902C0020AADF70470023013880
:10AC7C000B70042806D8DFE800F00306080A0C0065
:10AC8C0011230B7070472123FBE73123F9E71223C3
:10AC9C00F7E72223F5E7008800F0010070472DE963
:10ACAC00F0418B7890B00C46012B38BF01238DF806
:10ACBC000E304FF000080B88ADF80C306946054695
:10ACCC00607C8DF80280FFF7D1FFA07C0DF10101B3
:10ACDC00FFF7CCFF1646227D237B013202F00302E4
:10ACEC0043EA4203E27B43EAC203227C43EA0213B7
:10ACFC009DF8022003F01F0322F01F02134341466C
:10AD0C001C2209A88DF8023003F0E0FB637B13F0E2
:10AD1C00300F6F4614D00DF10901E07CADF80880BE
:10AD2C008DF80A80FFF7A2FF11238DF808309DF8EB
:10AD3C000A30012102AA61F342038DF80A300E9207
:10AD4C00637B8DF82430A37B8DF825300023CDE96F
:10AD5C000633089303ABCDE90437A388ADF81C3058
:10AD6C00A3681BB1E288ADF818200893A2695AB306
:10AD7C0001A90023ADF804308B701388ADF82C308A
:10AD8C005388ADF82E3053680D91107B0A93FFF762
:10AD9C006DFF0DF10501507BFFF768FF937B117A76
:10ADAC00013303F0030341EA4301937A41EAC301FF
:10ADBC00D37A41EA03119DF8063001F01F0123F00C
:10ADCC001F0319438DF80610E36903B10C93334646
:10ADDC0004AA09A92846FFF747FF10B0BDE8F08187
:10ADEC00A5DF7047B5DF704758B14FF0F71303601C
:10ADFC00FB230371F723C3801723C16083600020FA
:10AE0C0070470E207047000013B5034680880C462F
:10AE1C0090B91A883A2A65D010D8102A3AD0112A3B
:10AE2C005BD0A37A43B1E1880020FFF7D9FF00285B
:10AE3C0070D14FF48073638102B010BD552AF0D1EC
:10AE4C00DB88C988A072172B38BF17238B4228BF09
:10AE5C000B462381FFF7C6FF60B101F0B5FF364901
:10AE6C00364B5B1ADB081B040246354943F00100E4
:10AE7C0002F0CEFAE37A002BD3D1E368002BD0D0CA
:10AE8C0040F6772200922289ADF8042069462046CC
:10AE9C009847C6E7DB7B012B04BF0B88CB80C988A6
:10AEAC0023898B42BDD20020FFF79AFF10B90123F2
:10AEBC00E372B6E7112802D10123A372B1E701F0C6
:10AECC0083FF1D491D4B5B1ADB081B0402461D4901
:10AEDC0043F0010002F09CFAA3E7F723CB80172381
:10AEEC008B609EE75B89CA88934228BF1346172B59
:10AEFC00CA6838BF17230B814AB1C97A39B140F6F9
:10AF0C0077210091ADF80430694620469047002324
:10AF1C00638186E711288FD001F056FF0649074B55
:10AF2C005B1ADB081B040749024643F0010002B020
:10AF3C00BDE8104002F06CBA90E60100E8E60100B2
:10AF4C00B6E9010085E90100B0DF704766DF7047A4
:10AF5C0010B5002104464088FFF7F8FF034608B9F6
:10AF6C00237210BD112801D10123F9E76368BDE8F4
:10AF7C001040184760B159B10378DE2B0AD00B682A
:10AF8C004360DE2303704FF6FF734380002070474D
:10AF9C000E2070470820704728B10378DE2B04D1AF
:10AFAC004180002070470E20704708207047F0B594
:10AFBC00054685B00C46002942D0002840D00B78BD
:10AFCC00DE2B3DD182884B889A4204D10B7A13B187
:10AFDC000846FFF7BDFF2B88112B33D0512B0FD018
:10AFEC00012B2DD12B7A012B2AD1A9886288914271
:10AFFC0026D12046237205B0BDE8F040FFF7A8BF6C
:10B00C00AB8866889E421BD1AF79022F18D1AD7BDD
:10B01C002B1F022B14D800211022684603F056FA7D
:10B02C00052D14BF4FF4C0730023694630468DF8CC
:10B03C000070ADF80430FFF787FF08B163689847DC
:10B04C0005B0F0BD6388AA889A4204BF4FF6FF731F
:10B05C006380F5E7A8DF7047AEDF704762DF7047AB
:10B06C000288502A10B40CD1C4884A88944208D162
:10B07C00028A012A05D14B691BB1827C10BC8088E5
:10B08C00184710BC7047000070B50B688EB0436158
:10B09C00334B044602AA03F110061868596815468A
:10B0AC0003C50833B3422A46F7D104F1120102A8B2
:10B0BC00FFF7D4FF002851D1A37C8DF8063022462F
:10B0CC0041F2235301A90120ADF80430FFF7C2FF70
:10B0DC00002843D101461D220DF11B0003F0F6F9A7
:10B0EC0041F22453ADF81830A37C8DF81A309DF83A
:10B0FC002530224623F0120301254FF0011643F0B0
:10B10C00120332F80A0B079606A98DF825308DF834
:10B11C0029508DF82B50FFF7C2FDF8B901461D22BE
:10B12C000DF11B0003F0D2F941F22553ADF81830A4
:10B13C00A37C8DF81A309DF825300796224623F013
:10B14C000A0343F00A0332F8020B8DF8253006A9E6
:10B15C008DF829508DF82A50FFF7A1FD0EB070BD67
:10B16C00F1F1010000B589B00123ADF80E308DF876
:10B17C0012304B89ADF810300DF107038DF8072014
:10B18C00079300220DF10E0304A9CDF813208DF8BE
:10B19C0017200693FFF760FF09B05DF804FB000071
:10B1AC0038B5084B051EA3F1080214BF1C46144603
:10B1BC0023682BB11A6822605B6828469847F7E72A
:10B1CC0038BD00BF0C2D002020B9054B01225A7050
:10B1DC00FFF7E6BF012802D1014A9070F8E77047EB
:10B1EC00FC2C002020B9034B01225A70FFF7D8BF6A
:10B1FC00704700BFFC2C002038B50B4C237883B96A
:10B20C000A486360A3602361E36000F059F80546C7
:10B21C0002F090FB08B900F05FF801232370284678
:10B22C0038BD8525FBE700BFFC2C0020D5B1010003
:10B23C0037B50B4C00230DF107008DF8073000F0EB
:10B24C00FFFFE368013BE360E56815B900F056F8D1
:10B25C00A5709DF8070001F017F803B030BD00BFD2
:10B26C00FC2C0020012813B508D003281CD018B9D9
:10B27C00114B0122C3F8802002B010BD0F4C0023EB
:10B28C000DF107008DF8073000F0DAFF23780BB9C9
:10B29C00FFF7B2FFE3689DF807000133E360012379
:10B2AC00A37000F0F1FFE7E700F016F802B0BDE87C
:10B2BC001040FFF7BDBF00BF00E100E0FC2C0020F8
:10B2CC00044B0246187918B91A6001229A8070470B
:10B2DC0085207047102D0020074B1A68D2075FBFDE
:10B2EC00C02283F8002301221A604FF08043012210
:10B2FC00C3F81825704700BF00E100E04FF0804311
:10B30C000122DA60D3F81824D203FBD47047000072
:10B31C004FF0804307B5D3F800217AB10022C3F86F
:10B32C000021D3F800210092009A0122C3F80823CF
:10B33C000F4B587910B95A711B6898474FF08043DE
:10B34C00D3F8042182B10022C3F80421D3F80421DC
:10B35C000192019A0222C3F80823054B1B680120B5
:10B36C0003B05DF804EB184703B05DF804FB00BFB5
:10B37C00102D002000F1804000F5C040002382B069
:10B38C00036003680193019B02B07047800000F1D9
:10B39C00A040D0F8003723F44033C0F80037D0F881
:10B3AC00003743EA0143C0F800377047C208012355
:10B3BC0000F007008340885C03438B547047000007
:10B3CC00054B4FF0FF32072843F8202084BF1B1891
:10B3DC0083F84820704700BF182D002038B5144D55
:10B3EC0095F8584014BB2022FF2105F1300003F0E2
:10B3FC006DF8E0B20134FFF7E3FF0C2CF9D10D4BE3
:10B40C0000221A600C4BC02183F8061340211960EE
:10B41C004FF4BE70FFF7AEFF084B4FF00041C3F87E
:10B42C000413012385F85830104638BD0820FCE77A
:10B43C00182D00206C2D002000E100E00060004081
:10B44C00034B93F85800003818BF0120704700BF19
:10B45C00182D00202DE9F041DFF8DC8008EB00030B
:10B46C00044693F93030002B0F4663DA8B789D0736
:10B47C00C3F3400047BF0821002308230C218B4253
:10B48C0002D10420BDE8F08158F8236001364FEA60
:10B49C0083053AD108EB04015EB248F8232081F809
:10B4AC00306010B9434483F84840BB7859070ED438
:10B4BC00DA072CD5A30003F1A043D3F8002722F020
:10B4CC000202C3F800271D492046FFF76FFFBB7827
:10B4DC003A789B0724D505F1804303F5C043240239
:10B4EC00D3F8101521F4473121F44071C3F810152D
:10B4FC001204D3F8101504F4F85402F44032144337
:10B50C000C43C3F810450020BCE70133B7E77A7849
:10B51C0004F5E0734FF0A041920041F82320D2E7EC
:10B52C00083E48FA86F696F8503043EA821386F8BD
:10B53C005030E8E70820A5E7182D00206C2D0020DE
:10B54C0010B51D4C231893F93020072A16DD14442E
:10B55C0094F848309B09032B0BD14FF0A043D3F840
:10B56C001015C14001F001010231BDE81040FFF798
:10B57C000DBF012B0CBF02210321F6E7D3B2072B21
:10B58C0019D8930003F1804303F5C043D3F8100599
:10B59C0040F00100C3F8100502F14000800080B2B9
:10B5AC00FFF7E8FE39B154F8223023B10123934060
:10B5BC00024AC2F8043310BD182D00200060004070
:10B5CC000E4B034493F93020072A02DD0021FFF7CC
:10B5DC00DDBED3B2072B0FD8930003F1804303F5E4
:10B5EC00C043D3F8101521F00101C3F81015012345
:10B5FC009340034AC2F80833704700BF182D00204F
:10B60C00006000404FF0A043D3F8103523FA00F04F
:10B61C0000F00100704700002DE9F04F85B00024C8
:10B62C00594D01944FF48072012102F1804303F5CE
:10B63C00C0431B68012B07D1D5F804330B4203D050
:10B64C0090B2FFF797FE0C430432B2F5907F4FEAAD
:10B65C004101EAD14C4BD3F87C31012B0AD14FF488
:10B66C00BE70FFF787FE4FF0A04344F00044D3F8C0
:10B67C0010350193E3B2D3B1444F00250126344277
:10B68C0010D0AB0003F1804303F5C043D3F8100591
:10B69C00D3F8101557F8253023B1C1F30141C0F38D
:10B6AC00042098470135082D4FEA4606E7D1002CB7
:10B6BC0066DA4FF0FF3303934FF00009344F002646
:10B6CC0017F9014F631C4CD0C4F3C2080123E5B237
:10B6DC0004F03F0A04F0070403FA04F408F1100321
:10B6EC000DEB030818F8043C23423AD0274A02EB2E
:10B6FC000A03AD0993F9303052F823B0BBF1000FB7
:10B70C000AD1032D2DD102A95046CDF80890FFF790
:10B71C004DFEDDF8089001E0032DF4D00AF5E07140
:10B72C004FF0A04318F80CCC53F821101CEA040F6E
:10B73C00C1F3014105D0022913D1032D0BD12946A8
:10B74C0004E003290DD1032D05D102215046FFF74A
:10B75C001DFE0136F6B2BBF1000F02D02946504651
:10B76C00D8470C4B9F42ABD156B14FF0A043019937
:10B77C00D3F810358B4203D00193CDF80C909DE794
:10B78C0005B0BDE8F08F00BF00600040182D002010
:10B79C00672D00206B2D0020014B1B68184700BF44
:10B7AC00742D00200D4B984237B50C4611D1002357
:10B7BC000DF107008DF8073000F042FD084B1D79A4
:10B7CC0015B901221C601A719DF8070000F05CFD90
:10B7DC0015B9002003B030BD1120FBE7002000405C
:10B7EC00742D0020002382B0435043580193019BD9
:10B7FC0002B070471FB501238DF80030044BCDE922
:10B80C000110D3E900126846904705B05DF804FBBF
:10B81C007C2D00207FB5434AD2F82461002E60D0E5
:10B82C0010464FF49271FFF7DDFF02238DF80030C4
:10B83C00D2F88034C2F880340393D2F83C350293AA
:10B84C00394BDA6801920022C3E906226846D3E933
:10B85C00001290473348D0F8443173B14FF4A271C1
:10B86C00FFF7C0FF304B9A693AB10022D0F83C0583
:10B87C00D968C3E90622FFF7BDFF2A48D0F820316A
:10B88C00ABB14FF49071FFF7ADFF0123C360264BB2
:10B89C005A6962B1D0F84C150291002299688DF862
:10B8AC00002001915A616846D3E9001290471D4867
:10B8BC00D0F858319BB14FF4AC71FFF793FF1A4B92
:10B8CC005A6962B1D0F84C150291002299688DF832
:10B8DC00002001915A616846D3E90012904704B0E8
:10B8EC0070BDD2F81031002BB4D04FF488711046D3
:10B8FC00FFF778FF0C4BD2F83C0599698842A9D127
:10B90C00DC69D96864B1D2F8005225F02005C2F880
:10B91C0000521A699C61DA60DE61FFF76BFF99E7F0
:10B92C009C61FAE7002000407C2D00202DE9F047B7
:10B93C00584D90F80480242303FB0853814693F858
:10B94C0020300C469246002B40F09F8052490068F4
:10B95C00FFF728FF0746002840F099802368D9F8A4
:10B96C000060591C0AD04FF0A04101229A40C1F846
:10B97C00082503F5E072032041F8220061684A1C97
:10B98C001FBF01F5E0724FF0A0404FF0000C40F8E3
:10B99C0022C0A269C6F82425207D627D012842EAD6
:10B9AC000002C6F86C25C6F80C35C6F814151CD167
:10B9BC00A268501C1FBF02F5E0734FF0A04100209D
:10B9CC0041F82300E368591C0BD04FF0A040012133
:10B9DC009940C0F8081503F5E0714FF0030C40F8DE
:10B9EC0021C0C6F80835C6F81025242303FB08F33C
:10B9FC00EA18C2F804A02269EA50BAF1000F34D058
:10BA0C00D9F80000227F4FF48871FFF7EBFE4FF45A
:10BA1C009071FFF7E7FE4FF49271FFF7E3FE4FF4DE
:10BA2C00A271FFF7DFFE4FF4AC71FFF7DBFE1B4B8F
:10BA3C00C0F8043340F30733002BADBF03F1604172
:10BA4C00174903F00F0001F561414FEA4212D2B2DF
:10BA5C00B4BF0A5481F800235909012203F01F03D3
:10BA6C0002FA03F30F4A42F821300823C6F80035D6
:10BA7C00242303FB08550023C5E906336B6101231E
:10BA8C0085F820303846BDE8F0870827FAE71127FB
:10BA9C00F8E700BF7C2D002021B801001003420004
:10BAAC0014ED00E000E100E00279044B242101FBDD
:10BABC0002335869003818BF012070477C2D0020D4
:10BACC0001F06043B3F1005F2DE9F04781460E466B
:10BADC00924636D190F80480FFF7E6FF044690BBFF
:10BAEC001B4FD9F80020242505FB08754FF49071E5
:10BAFC001046C5F814A0AE60FFF774FE4FF4AC719D
:10BB0C00FFF770FE6B69C2F84465C2F84835012333
:10BB1C0093606B68CBB9D2F82031D2F8580103434B
:10BB2C00F9D060B90123D360D2F85831002BFBD087
:10BB3C00242303FB087700237B61BDE8F0870F20EB
:10BB4C00F6E71020F9E71120F7E72046F5E700BFEC
:10BB5C007C2D002010B5C307064A4FEA500048BFA1
:10BB6C000901145C4ABF0F23F023C9B223401943C7
:10BB7C00115410BDA02D002010B5094B1978094B9C
:10BB8C001B680022914201DC002005E013F83240D2
:10BB9C00844202D103EBC20010BD0132F2E700BFB8
:10BBAC00DC2D0020E02D002070B504460D46FFF77B
:10BBBC00E3FF30B1436823B129462046BDE870400D
:10BBCC00184770BD034B044819680022490800F05F
:10BBDC0052BA00BFD82D0020B82D002010B5C0B22D
:10BBEC00FFF7CAFF04460078FFF70CFD63785A1E76
:10BBFC0053425341834208D1044AD2E900321343E1
:10BC0C0003D1BDE81040FFF7DDBF10BDB02D002003
:10BC1C0037B54308374AD35CC2074CBF1B0903F046
:10BC2C000F0304460D46042B25D8DFE803F003264A
:10BC3C00303D4100F9B10121FFF78CFF00230DF1DC
:10BC4C0007008DF8073000F0FBFA0122A4F1200365
:10BC5C00C4F12000284922FA00F002FA03F303434E
:10BC6C00A240D1E9004014431843C1E900409DF8BB
:10BC7C00070000F009FB03B030BD003918BF0121EB
:10BC8C004900204603B0BDE83040FFF763BF49B11F
:10BC9C000321FFF75FFF0121204603B0BDE83040D0
:10BCAC00FFF782BF0121ECE70029E4D10421E8E78A
:10BCBC0009B10321E5E7FFF74DFF29462046FFF7C1
:10BCCC0073FF0DF107008DF8075000F0B9FA01224F
:10BCDC00A4F12003C4F12000074922FA00F002FA73
:10BCEC0003F30343A240D1E9004024EA020420EA12
:10BCFC000300BAE7A02D0020B02D00202DE9F04163
:10BD0C00124E134F00243378A34208DC114AD2E9B7
:10BD1C000032134318D0BDE8F041FFF753BF3D6824
:10BD2C0005EBC40815F83400FFF76CFC98F80130EB
:10BD3C005A1E53425341181A4142414115F83400DE
:10BD4C00FFF766FF0134DEE7BDE8F081DC2D002053
:10BD5C00E02D0020B02D0020092A73B505460C46B5
:10BD6C0016463DD9FFF76CFBE0B11E4B1E481D601B
:10BD7C001E4B1C701E4B002110221E6002F0A6FBF5
:10BD8C001C4B00200021C3E90001013CE4B2032656
:10BD9C00FF2C0DD1184A1948002102B0BDE87040A3
:10BDAC0000F05EB9FFF71AFB0028DED002B070BDC0
:10BDBC009DF8063015F834008DF8046005EBC402CC
:10BDCC0023F007038DF8063001A993780C4A8DF8FF
:10BDDC000530FFF73FFB013CE4B20028D8D0E5E783
:10BDEC000720E3E7E02D0020A02D0020DC2D002013
:10BDFC00D82D0020B02D002009BD010004F2010057
:10BE0C00E9BB010070B5084D084E00242B789C420C
:10BE1C0001D3002070BD3368012113F83400FFF703
:10BE2C008FFB0134F2E700BFDC2D0020E02D002059
:10BE3C0073B5114D114E00242B789C4215D3002361
:10BE4C000DF107008DF8073000F0FAF90C4B0021CA
:10BE5C000020C3E900019DF8070000F015FA09481D
:10BE6C0002B0BDE8704000F01EB9336813F834001E
:10BE7C00FFF7A6FB0134DFE7DC2D0020E02D0020CE
:10BE8C00B02D0020B82D00201FB50021039001AA71
:10BE9C0044F20100CDE9011100F004F805B05DF8A1
:10BEAC0004FB000038B572B601F0E8FA01F04CF969
:10BEBC000028FBD1104B114C114D1249E41AE40827
:10BECC00240444F0010001F09FFAD5F8F030DB07B0
:10BEDC0000D500BE0C4944F0020001F095FABFF306
:10BEEC004F8FEA68094B02F4E0621343EB60BFF337
:10BEFC004F8F00BFFDE700BF90E60100C0E60100D8
:10BF0C0000ED00E027EA010033EA01000400FA0525
:10BF1C0010B5D0E90242D1E90203A04293412CBFF3
:10BF2C000120002010BD000008B50A4800F0DBFA23
:10BF3C00094AD2E90031C018084BD3E9002341F17A
:10BF4C000001904271EB030303D210F1807041F1B8
:10BF5C00000108BDEC220020582E0020502E00209D
:10BF6C0038B5164B1B78044613B90025284638BD46
:10BF7C000028FAD0037F03F0FF05002BF5D0FFF764
:10BF8C00D3FFD4E902239042994112D3236903B918
:10BF9C002377D4E90530984721690029E5D0237F20
:10BFAC00002BE2D0D4E902325B1842F10002C4E962
:10BFBC0002320348214600F0C6FED7E7602E00206F
:10BFCC0008F2010037B505460C460A4801A900F0F5
:10BFDC00CEFA68B10570446001A9064800F0F1FA88
:10BFEC0010B9002003B030BD034800F081FAF8E727
:10BFFC000420F7E7E82D0020EC22002013B5114BAC
:10C00C0011491868019008231048582200F09CFA36
:10C01C00044698B90E4A0F4801A900F057F9044696
:10C02C0060B90C48012100F041FA01230A4A094881
:10C03C00194600F0A9F9094B01221A70204602B0EA
:10C04C0010BD00BF14F20100F82D0020E82D0020D7
:10C05C00CDC00100EC220020FFFF7F00602E0020ED
:10C06C003AB103685A614A1E51425141196100208C
:10C07C0070470720704738B5037F04460D4683B9D7
:10C08C008261FFF751FF2369281841F10001C4E9CF
:10C09C00020103B1256121460020BDE83840FFF7BD
:10C0AC0091BF002038BD0023014603770120FFF724
:10C0BC0089BF0000014800F016BA00BFEC22002036
:10C0CC002DE9F341064600F0F9F940B1544AD2E9A2
:10C0DC00003113F1807341F10001C2E900310021FC
:10C0EC00304600F0FAF938B14E4C236823B1206881
:10C0FC00FFF736FF002323600121304600F0EDF9F5
:10C10C0020B1FFF711FF484BC3E900014748454DEB
:10C11C00474C01A900F060FA00283DD1414C45483C
:10C12C0000F028FE2368002871D073B12268D0E992
:10C13C000253D2E902128D4293412AD223681B7F0B
:10C14C001BB121683B4800F0FEFD3A4800F00CFEA4
:10C15C00D0E902780546FFF7E7FE3F1A68EB0108C5
:10C16C00012F78F1000845DBB7F5350F40D3FFF709
:10C17C00A1FF314A024431484FF49603002100F0EC
:10C18C0023F900283ED1236813B9304600F0F4F8A7
:10C19C00256002B0BDE8F0810378012B1BD0022B87
:10C1AC0007D10027234800F0DFFDF8B901232370E5
:10C1BC0008E03BB941680B7F23B901231D480B777D
:10C1CC0000F0C1FD01A9194800F031FA01A9174886
:10C1DC0000F002FAA0E741682B68994202D10023D3
:10C1EC002B60EFE7134800F0C8FDEBE70777D9E7C2
:10C1FC00AA68C0E71148002100F065F92846FFF74E
:10C20C00AFFE01E00D28F9D00023236087E7002B57
:10C21C00BFD1304602B0BDE8F04100F0B1B800BF6C
:10C22C00582E0020642E0020502E0020E82D0020D7
:10C23C00602E002008F20100FFFFB400EC22002069
:10C24C0070B5EFF3108672B60C4A9468012384B96A
:10C25C0093600B4B0B4DD3F8801029401160C3F841
:10C26C008050D3F8841051604FF0FF32C3F8842013
:10C27C002346037006B962B670BD00BF682E00205D
:10C28C0000E100E0FC06FFBD084B9A6810B55AB1FE
:10C29C0050B9EFF3108172B6054A1C6814605C68E3
:10C2AC005460986001B962B610BD00BF682E0020C2
:10C2BC0000E100E00346405882B028B100225A50F9
:10C2CC005B580193019B012002B07047F8B5224BDB
:10C2DC004579224E43F82520214B224A9B1ADB0834
:10C2EC000446180406EBC503EF001B7933B140F08C
:10C2FC0002001D4901F088F80820F8BD23680A885F
:10C30C00C3F8082594F904308A78002BADBF03F1EB
:10C31C00604103F00F0C154901F561414FEA4212DF
:10C32C00D2B2B4BF01F80C2081F800234FEA531CA1
:10C33C0001220F4903F01F0302FA03F341F82C30DA
:10C34C00F31940F003000B4946F835401A7101F01F
:10C35C005BF80020D1E700BF7C2E0020742E00205B
:10C36C00D0E6010090E601004AEA010014ED00E07D
:10C37C0000E100E06CEA0100036801221A607047DA
:10C38C00036801225A60704773B501F15005AD0086
:10C39C000068ADB24FF480348C400026C0F80843DE
:10C3AC00C0F84843465101F5A8714559019522F052
:10C3BC007F42019D40F82120C0F844430BB1C0F8E6
:10C3CC00044302B070BD00002DE9F74F04680E461F
:10C3DC004FF4803808FA01F822F07F4506F1500737
:10C3EC0004EB8602C4F84883BF00C4F80883D4F871
:10C3FC000415BFB29946D2F84035C2F84015002258
:10C40C00E2515B1A824623F07F43E0590090012BE6
:10C41C0000984FEA860B0CD1234B4FF4806043F00D
:10C42C0001039847DAF800400022E251E3590193E6
:10C43C00019BD4F80475C4F84483EB1B23F07F43B1
:10C44C00012B14D1184B06F5A876013544F826506B
:10C45C0043F001034FF480609847DAF80040D4F8B9
:10C46C0004359F421AD00D2003B0BDE8F08FA344D1
:10C47C006A1ECBF84055D4F80415C9F1FF13521AB3
:10C48C0022F07F4203F57F439342ECD332B901355E
:10C49C00CBF84055D4F804359942E3E7C4F844830B
:10C4AC000020C4F80483DFE720F2010003680222B5
:10C4BC00C3F8442309B1C3F80423704700684FF450
:10C4CC008271FFF7F7BE4FF4803303FA01F1036872
:10C4DC00C3F84813C3F8081370475031890000683B
:10C4EC0089B2FFF7E7BE0368D3F804057047000074
:10C4FC0090F9043001215A0903F01F03994002F10D
:10C50C004003024A42F82310704700BF00E100E0EC
:10C51C00024B034A1B681068184700BF7C2E002092
:10C52C00742E002050E8012FC2EA024240E8012399
:10C53C00002BF7D1704750E8022FC2EA224240E8A4
:10C54C000223002BF7D1704710B561B1B2FBF3F4A5
:10C55C0003FB1424A4B244B9C0E9001484608281A2
:10C56C00C381204610BD0E20FCE70920FAE737B541
:10C57C0050E8013F9DB2C48925448489A54228BF57
:10C58C002D1B0489A54202BFBFF32F8F002207E0A9
:10C59C00C5EA030540E80154002CE9D14FF0010233
:10C5AC008DF803200193019A0A609DF8031001F0A5
:10C5BC00FF0321B1006810FA82F003B030BD1846B9
:10C5CC00FBE708B50A884B889A4203D1FFF7AAFF0C
:10C5DC00012008BD0020FCE737B550E8023F1FFAE8
:10C5EC00A3F5C488A54202BFBFF32F8F00220DE034
:10C5FC00C48925448489A54228BF2D1BC3EA05455F
:10C60C0040E80254002CE8D14FF001028DF80320D1
:10C61C000193019A0A609DF8031001F0FF0321B108
:10C62C00006800EB124003B030BD1846FBE708B5BC
:10C63C000A884B889A4203D1FFF77DFF012008BD81
:10C64C000020FCE701F01F024B090121914000EB97
:10C65C00830000F01EB801F01F0301229A404B0921
:10C66C0000EB8300D14300F02CB84B0901F01F0103
:10C67C0050F82300C84000F00100704710B5034685
:10C68C0053E8000F0A4643E8002494F0000FF7D15A
:10C69C0010BD10B5034653E8002F42EA010043E8F1
:10C6AC00000494F0000FF6D110BD10B5034653E80A
:10C6BC00000F00EA010243E8002494F0000FF6D1C9
:10C6CC0010BD10B5034653E8002F02EA010043E801
:10C6DC00000494F0000FF6D110BD10B5034653E8DA
:10C6EC00002F02EB010043E8000494F0000FF6D198
:10C6FC0010BD10B5034653E8002FA2EB010043E830
:10C70C00000494F0000FF6D110BD0121FFF7C1BF5A
:10C71C000021FFF7CABF10B590B1D0E90123016821
:10C72C009B1ADBB20A60013BDBB2FF2B026802D121
:10C73C000020107110BD11684C1C14600B70F2E7D6
:10C74C000E20F7E737B5054600240DF107008DF8EC
:10C75C000740FFF775FD2A68696813688B420ED98C
:10C76C00591E116013F8013C288AEC6800FB034445
:10C77C00AB685B1A1179DBB2994238BF13719DF823
:10C78C000700FFF781FD204603B030BD37B50546E5
:10C79C0000230DF107000C468DF80730FFF750FD14
:10C7AC002A681368591C1160EA68A41A2A8AB4FB17
:10C7BC00F2F41C709DF80700FFF766FD03B030BD66
:10C7CC00826810B504462AB143690168006998472C
:10C7DC000023A36010BD0EB403B5039921B104ABC3
:10C7EC0001AA019300F076F802B05DF804EB03B0F7
:10C7FC0070470A2938B504460D4602D10D21FFF7C2
:10C80C00F8FFA3682268591CA160D554D4E9013201
:10C81C009A4204D32046BDE83840FFF7D1BF38BD5B
:10C82C002DE9F84F9846DDE90A43164682460F4635
:10C83C000A464FF00109B2420FD2C14538BFC1467A
:10C84C0013F0010B01D16CB900240125B8F1010FD3
:10C85C001CD908F1FF387543F8E709F10109B2FB5F
:10C86C00F6F2E8E79B070ED5B8F1000F0CBF3025A8
:10C87C002025A145E9D2013C29465046FFF7B9FFD6
:10C88C00002CF6D1E0E72025F3E77543B7FBF5F371
:10C89C009E42FAD9DFF83880B7FBF5F3504618F80A
:10C8AC00031005FB1377FFF7A4FF2B46B342B5FB30
:10C8BC00F6F5F1D2BBF1000F00D034B9BDE8F88F1A
:10C8CC0020215046013CFFF794FF4C45F8D8F5E782
:10C8DC0026F201002DE9F74F054690460F46002938
:10C8EC0000F04C8117F8011B49B92B7B002B00F091
:10C8FC004581284603B0BDE8F04FFFF761BF2529FD
:10C90C0040F0BE80002602E046F001061F463B4682
:10C91C0013F8011B2D29F7D0302920D02B2921D039
:10C92C002A291A4621D1D8F80020111D1468C8F8FC
:10C93C0000101F4639782E2926D101374FF0000AF6
:10C94C000A203A4612F8011BA1F1300CBCF1090F78
:10C95C001CD800FB0A11A1F1300A1746F1E746F08A
:10C96C000206D3E746F00406D0E7002412F8013C97
:10C97C00A3F130010929DDD80A2101FB0433174644
:10C98C00A3F130040132F1E74FF0000A7A1C01F0F8
:10C99C00FB006828174602D112F8011BF7E778292B
:10C9AC0009D86F290BD8632964D021D8252967D0E1
:10C9BC00582900F08D803B78002B93D195E7703986
:10C9CC000829F8D801A252F821F000BF5FCB010072
:10C9DC00C3C90100C3C90100F1CA0100C3C90100E8
:10C9EC00C7CA0100C3C90100C3C90100DDCA0100E7
:10C9FC00642901D06929DED1D8F80020D2F8009042
:10CA0C00111D89EAE972C8F80010A2EBE9724FF027
:10CA1C00010B0A21092A37DCD34538BFD3462CB188
:10CA2C00B9F1000F01DB720700D5013CB30702D549
:10CA3C00BAF1000F03D0F00701D454BB0024B9F1B4
:10CA4C00000F2EDAC9F100092D212846FFF7D1FE7F
:10CA5C0006F00302022A04D1BAF1000F01D124BB63
:10CA6C000024CDE9004653460A2249462846FFF7E2
:10CA7C00D7FEA0E7D8F800301A1D1978C8F80020A6
:10CA8C002846FFF7B6FE96E70BF1010BB2FBF1F26D
:10CA9C00C0E7A345D3D220212846013CFFF7A9FECD
:10CAAC00CBE77107D4D52B21CFE7A345D9D23021C1
:10CABC002846013CFFF79DFED1E7D8F800100A1D6F
:10CACC00C8F80020CDE9004653460A220968CDE794
:10CADC00D8F800100A1DC8F800205346CDE90046CE
:10CAEC001022F3E7D8F800301A1DC8F8002016F011
:10CAFC000106D3F8009024D1B9F1000F03D04846B9
:10CB0C0001F05FFC0646B4421DD809F1FF3919F853
:10CB1C00011F00293FF44FAF2846FFF76AFEF6E7E6
:10CB2C0028460136FFF765FE19F806100029F7D1E3
:10CB3C00A642BFF440AF20212846013CFFF759FE26
:10CB4C00F6E70026F0E720212846013CFFF751FECE
:10CB5C00D9E7D8F800301A1DC8F800203021284633
:10CB6C001C68FFF746FE78212846FFF742FE00229C
:10CB7C000823CDE900322146102277E703B0BDE847
:10CB8C00F08F00BF2DE9F84FB0F806A04579D2F828
:10CB9C0000B09DF828900AFB05F5043D88460BEB88
:10CBAC000301A94203F1040488BFA5EB030BB4FBFA
:10CBBC00FAF607460AFB1644C2F800B04EB9AAEBC7
:10CBCC0004055D4528BF5D46BBF1000F04D1BDE8EF
:10CBDC00F88F3F68013EF1E7043408EB06003C4453
:10CBEC002A46B9F1000F0DD02146ABEB050B01F035
:10CBFC003BFCDA452E443F6855464FF0000428BFF5
:10CC0C005D46E1E701462046EFE7FFF784BDF8B546
:10CC1C0046790146721E0546002393422D6803D3C4
:10CC2C000024A64202D8F8BD0133F6E70F68284667
:10CC3C00FFF7ACFD01343946F3E72DE9F041078AE3
:10CC4C00CD1C0646FFF77EFD043F3D440446B5FB74
:10CC5C00F7F5D0B14FF48073EDB2C7808380013DFE
:10CC6C00066080460027AF4210D23046FFF76AFDBF
:10CC7C0040B16379013363710137C8F80000066075
:10CC8C008046F0E72046FFF7C2FF00242046BDE8AF
:10CC9C00F08101210430FFF720BD10B501210446BD
:10CCAC000430FFF726FDC0B220B92046BDE8104085
:10CCBC00FFF7ADBF10BD1FB503920022009203AA6F
:10CCCC00FFF760FF05B05DF804FB1FB5039201226E
:10CCDC00009203AAFFF756FF05B05DF804FB0000B5
:10CCEC00064B10B500241C70054B1C60BFF35F8F06
:10CCFC000449054800F013F8204610BD882E00208A
:10CD0C008C2E002038F20100802E00208368002237
:10CD1C005A60C3E904229A60DA601A607047D1E95C
:10CD2C000032934208BF00230160436070474368A0
:10CD3C0043B10268916852680B449342436004BF4C
:10CD4C0000234360704770B5446806460D46206862
:10CD5C0020B1B36829469847236818B923682B601B
:10CD6C00256070BD1C46F2E74368186808B102687C
:10CD7C001A6070474368186870474368186800B9B0
:10CD8C0070471A688A4203D10A681A6001207047FA
:10CD9C001346F3E710B50B4AA2F594739A4201D8E7
:10CDAC0000200CE0D11A091103EBC10453F8311027
:10CDBC00814205D802D204F10803EFE7606810BD88
:10CDCC002246EBE76CF3010008B5FFF7E3FF024BDB
:10CDDC00002808BF184608BD6CF30100704700001E
:10CDEC0007B5044B0093044A402300F034F803B019
:10CDFC005DF804FB09CE0100902E00202DE9F843CC
:10CE0C0088461446B2B1104B104D0326002743F050
:10CE1C000109224608EB0701002000F0D5FC07446D
:10CE2C00241A60B92B782BB14FF47A40C847013ED5
:10CE3C0002D12E70BDE8F88301232B70E9E70123A2
:10CE4C002B70002CE5D1F5E780F30100D02E0020EB
:10CE5C00704700F0E5BCF0B595B01D461646084687
:10CE6C000C46FFF716FF1A9B0D93CDE908650025BC
:10CE7C002B46082205A920460A958DF82C500C95B6
:10CE8C00FFF723FF079B0293069B03939DF8143037
:10CE9C008DF8115003F00302012A1DD1BDF8145076
:10CEAC00059EC3F3C203C5F383158DF81030AA0099
:10CEBC0008230EA92046FFF708FFC6F3952608ABFA
:10CECC0000932A4602AB0EA9304600F045FB2046E3
:10CEDC00FFF7E3FE15B0F0BD022AF8D1BDF81650ED
:10CEEC00C3F3C203C5F389158DF810300827082D3C
:10CEFC002E4628BF08263B4632460EA92046FFF791
:10CF0C00E4FEAD1B08AB02AA31460EA8374400F074
:10CF1C0087FB002DEBD1DAE708B5FFF79AFF044841
:10CF2C00042100F089FA034B01225A7108BD00BF9D
:10CF3C0018E70100F4220020037813F0040215D046
:10CF4C0003F00303012B03D0022B09D001207047FF
:10CF5C000B6802880233C2F3831213440B60F5E7AB
:10CF6C000B684288023303EB9213F7E710467047C5
:10CF7C002DE9F041434C86B0884600230546861CBB
:10CF8C000DF1070017468DF80730FFF759F92268A5
:10CF9C00C8F80020D4E901130B4401339B1A9E42BC
:10CFAC0018D80022002F69D005F00F05AD0145F00F
:10CFBC00050565F30F022168A3689DF807000B4077
:10CFCC0003330E4444F823202660FFF75DF906B0C6
:10CFDC00BDE8F08101212C48FFF77FFB2B48FFF7C0
:10CFEC0094FB2B48FFF791FB6068D4F80880029003
:10CFFC0000EA0800033004EB800002A9FFF79CFF55
:10D00C00029A08EA020310BB04EB8303911CDB6851
:10D01C000393013202EA080204EB820203F00303D9
:10D02C00012BD268029121D0022B14D080461848D3
:10D03C00FFF76EFB08B1029B636013484146FFF794
:10D04C004CFBD4E90123134401332268A6E70333D4
:10D05C0004EB8300D1E7BDF80E30C3F3891303331F
:10D06C004FEA124801EB93030293E0E7BDF80C3052
:10D07C00C3F383134FEA12480B44F5E7AD0545F0B3
:10D08C00060298E7D42E0020F0320020EC3200206B
:10D09C00E83200200B4B0C48FF2210B59A6000229E
:10D0AC00C3F81824C3E90022C3F8142483F82024FD
:10D0BC00FFF7ABFD044610B90448FFF727FE2046E6
:10D0CC0010BD00BFD42E00207CE6010094F30100BB
:10D0DC0030B50A4C71B10A4B0A491B1BDA08002304
:10D0EC009A4201D1002030BD31F82350854202D044
:10D0FC000133F5E7034654F83300F4E790E60100FA
:10D10C0018E70100C8220020094B013903EBC000CD
:10D11C00032909D8DFE801F0020A0406022070474F
:10D12C0000797047407970470020704704207047A1
:10D13C0090E60100034BD3E90030C31A5842584122
:10D14C00704700BFD42E00202DE9F04786B0FFF7C2
:10D15C00F1FF002840F08F807F4DC5F81804BFF315
:10D16C004F8F6868AC6802902040033005EB80005C
:10D17C0002A9FFF7E1FE029B18B1D5F81824002A8A
:10D18C0075D003EA04029F1C013305EB8202234095
:10D19C0005EB8303D268DB68049302F00303022BD4
:10D1AC00039202977AD1BDF80E306C48C3F38918FC
:10D1BC00B8F1500FC14628BF4FF0500969F38F13D7
:10D1CC0009F10801ADF80E30FFF737FD06460028CF
:10D1DC0000F0AD80FFF75DFD00233046082203A967
:10D1EC00FFF769FD24EA07030133B9EB830F4FEA1C
:10D1FC0083004BD95FFA89F9002843D004EA070170
:10D20C00C4B2A9EB040A0331A146554C05EB8101CC
:10D21C005FFA8AFA08234A463046FFF74CFD34B1D0
:10D22C0009F10803524621463046FFF744FD08F148
:10D23C00030807EB98070297D5F81834002B62D136
:10D24C00D5F81044002C67D13046FFF726FD0DF1C0
:10D25C0007008DF80740FEF7F3FFD5F818340BB92B
:10D26C00029B6B609DF80700FFF70EF84EE02A68F2
:10D27C009A4204D86A60002006B0BDE8F08703EA41
:10D28C00040072E7364904468246C3E704EA070104
:10D29C00033108234A4605EB8101C5E7012B46D132
:10D2AC00BDF80C302D48C3F38311062928BF062185
:10D2BC0061F38913023101F00F018900ADF80C30D4
:10D2CC00FFF7BBFC064690B3FFF7E3FC00230822F4
:10D2DC0003A93046FFF7EFFC0027BDF80C20C2F382
:10D2EC008312BB00BA4203F10803A5D902994A1C68
:10D2FC0021400331029205EB810104223046FFF7F5
:10D30C00DAFC0137E9E73046FFF7C7FCFFF712FFFD
:10D31C0080F00100C0B2AFE7E3685B7923B123680A
:10D32C0031461B6820469847E3681C688AE7D5F8A5
:10D33C00104454B90B4B0C480C49C01AC0080004DB
:10D34C0040F0020000F060F8E0E7236820469B689C
:10D35C009847E3681C68ECE7D42E00207CE60100BB
:10D36C00E02E002090E60100C0E601005AEE01001C
:10D37C002DE9F74F224E04460F461846924601A956
:10D38C0001229B46D6F80890FFF7F2FD019D4FF065
:10D39C000008AB1CD84508EB030126D11948002125
:10D3AC00FFF76CF980F310006B1C000440EA14408A
:10D3BC0003EA0903E40006EB830304F0380405EAEE
:10D3CC00090544F00104D860033544EA881496F842
:10D3DC00203444EA872446F825401BB1FFF7B4FEFD
:10D3EC000028FBD103B0BDE8F08F01EA090106EB80
:10D3FC0081015AF82820CA6008F10108CAE700BF69
:10D40C00D42E0020F032002000231A46FFF7B0BFC4
:10D41C0007B50123019201AAFFF7AAFF03B05DF83B
:10D42C0004FB07B5CDE9002302236A46FFF7A0FFF2
:10D43C0003B05DF804FB000030B50F4CD4F8102499
:10D44C0003460020114631B9D96808717AB9C4F87D
:10D45C0010340A600AE0C9680D79A84201D0096845
:10D46C00F1E701300A28EDD14FF0FF3030BDD26822
:10D47C0014680C601360F9E7D42E002038B5084B03
:10D48C000125D3F8104483F8205404B938BDE3685F
:10D49C005D71236820465B689847E3681C68F4E775
:10D4AC00D42E002010B5037A052B0C460FD0437AEE
:10D4BC0023B1084A08492046FFF78DF90749204651
:10D4CC00FFF789F92046BDE81040FFF779B9002A2B
:10D4DC00F8D0F3E76FEE010074EE010035E70100C0
:10D4EC00C38873B504460D4633B1144A00921449EF
:10D4FC00144A2846FFF76FF9217A05291CD0637A64
:10D50C004BB1A088FFF700FE0F4B104953F82020B9
:10D51C002846FFF760F9227A0D4BA08853F8226059
:10D52C000021FFF7D5FD0B4903463246284602B0D1
:10D53C00BDE87040FFF74FB902B070BD6FEE01004F
:10D54C007FEE010077EE0100A0F3010074EE010004
:10D55C00C4F3010097EE01002DE9F04385B01F469E
:10D56C000C9D002395F80C902B7306460C469046A8
:10D57C0029463846FFF7B4FFB8F1060F09D8DFE8A3
:10D58C0008F00412181F2833400031462846FFF7D4
:10D59C0022F9002229463846FFF784FF85F80C90C3
:10D5AC0005B0BDE8F083226831462846FFF713F931
:10D5BC00EFE7D4E9002331462846FFF70CF9E8E7FA
:10D5CC00A3680093D4E9002331462846FFF703F9FA
:10D5DC00DFE7E3680193A3680093D4E900233146A5
:10D5EC002846FFF7F8F8D4E723690293E368019320
:10D5FC00A3680093D4E9002331462846FFF7EBF8E3
:10D60C00C7E76369039323690293E3680193A368F3
:10D61C000093D4E9002331462846FFF7DCF8B8E73D
:10D62C0008292DE9F04780460E4617461C4635D88A
:10D63C00002593F80C901D7319461046FFF750FF08
:10D64C00AE422DD918F805201B492046FFF7C3F828
:10D65C000135082DF4D119492046FFF7BCF84FF0DD
:10D66C00000A564523D918F80A507E2D1DD8284695
:10D67C0000F088FF002814BF2A462E2210492046AD
:10D68C00FFF7A9F80AF1010ABAF1080FE9D1012252
:10D69C0021463846FFF706FF84F80C90BDE8F0876A
:10D6AC0008492046FFF797F8D2E72E22E6E706490D
:10D6BC002046FFF790F8E5E7A1EE0100ABEE010084
:10D6CC00ADEE0100A7EE0100A9EE01000369C268EE
:10D6DC0093429CBF81685B18013B981A70472DE9F7
:10D6EC00F041D0E902840546A8EB04064068964256
:10D6FC0020440F46144404D900F0B6FEEC60BDE89B
:10D70C00F0813246A4EB080400F0AEFE68682246B5
:10D71C00B919F1E72DE9F843C5680646894617465D
:10D72C004FF000083369B46870689D4228BF1B191C
:10D73C00641BBC4203F1FF3328BF3C465B1B9C427D
:10D74C0028BF1C4649462844224600F08DFEB3688B
:10D75C002544AB4208BF00253F1BA044A144F56003
:10D76C00E0D14046BDE8F8831149124A022310B5B6
:10D77C00C1E90433104B8A61CB618A644FF40073A6
:10D78C000E4A0B620C460023CA6410228B624B6259
:10D79C00CB628B654B65CB650A65E01D084900F0D3
:10D7AC004BFE0849204600F047FE2023A37110BD14
:10D7BC0070360020FBEE0100703400206034002035
:10D7CC0004EF010008EF0100F8B5144B182700FB1B
:10D7DC0007751D4407FB00330E46DB6A012B14460C
:10D7EC000AD0022B14D023B92846FFF76FFF8442CE
:10D7FC0008D900242046F8BD2846FFF767FF84426D
:10D80C0028BF0446224631462846FFF768FFF1E759
:10D81C002846BDE8F840FFF77DBF00BF70360020FA
:10D82C00FFF7A2BF10DF704713B5044609496846DD
:10D83C00FFF775FA019808B902B010BDD0E90031B4
:10D84C002046984718B16846FFF771FAF2E71120A5
:10D85C00F2E700BFF0F3010013B504460749684630
:10D86C00FFF75DFA019B0BB902B010BD2046D3E95E
:10D87C00002190476846FFF75AFAF3E7E4F30100FA
:10D88C000B4991F81623EC2352091341DB0706D5FB
:10D89C00084B9A683AB94FF480030B60704742F218
:10D8AC000200FEF7F1BA1A6842F480021A6070475F
:10D8BC0000E100E0682E0020F7B5194F3C7864BBFE
:10D8CC00184E012520463570FFF7AEFF112821D0E8
:10D8DC002046FFF7C1FF144B8DF8034018680190E8
:10D8EC000DF10300FEF7ACFC104901A8FFF79AFFFD
:10D8FC00B0FA80F304465B099DF803003B70FEF719
:10D90C00C3FC3CB90A4B34701C70FFF7B9FF2846B6
:10D91C00FFF7A2FF204603B0F0BD0824FAE700BFD2
:10D92C00EA360020E8360020FCF30100B1BE01000D
:10D93C00E9360020014B1878704700BFEA3600200A
:10D94C0007B508496846FFF7EAF9019B13B903B01C
:10D95C005DF804FBD3E9002090476846FFF7E7F930
:10D96C00F3E700BFD8F30100FFF7EABF60DF7047B1
:10D97C0069DF704761DF704730B54FF4FA75ADF56C
:10D98C00017D0DF1020103A8ADF80250FFF7F2FF83
:10D99C0078B901AC0C492046FFF7C1F96368002B3C
:10D9AC00EFD003A8D3E9002190472046FFF7BFF939
:10D9BC00F4E7052805D00DF5017DBDE83040FEF7F4
:10D9CC0063BA0DF5017D30BD00F40100024B1B78EC
:10D9DC000BB1FFF7D1BF7047EB36002030B50546D1
:10D9EC0085B00C46002900F0A3800023CDE901335B
:10D9FC00504A039301230A608DF804008DF8063019
:10DA0C0001A906232020ADF80830FFF7B1FF60B163
:10DA1C00FFF7DAF94849494B5B1ADB081B0402464D
:10DA2C00474943F00100FFF7F3FC0023CDE9013334
:10DA3C0003932268012301A940208DF80530FFF7DC
:10DA4C0097FF60B1FFF7C0F93B493C4B5B1ADB0811
:10DA5C001B0402463B4943F00100FFF7D9FC0023AD
:10DA6C00CDE90133039322688DF80450F72301A903
:10DA7C002320ADF80630FFF77BFF60B1FFF7A4F968
:10DA8C002D492E4B5B1ADB081B0402462E4943F032
:10DA9C000100FFF7BDFC002301202268039301A9BC
:10DAAC00CDE901338DF80400FFF762FF60B1FFF799
:10DABC008BF92149214B5B1ADB081B0402462349D5
:10DACC0043F00100FFF7A4FC0023CDE902332268E8
:10DADC004FF4B06301A9A1200193FFF749FF60B196
:10DAEC00FFF772F91449154B5B1ADB081B0402464D
:10DAFC00174943F00100FFF78BFC002322680393C6
:10DB0C0001A9A020CDE90133FFF732FF10B90020A5
:10DB1C0005B030BDFFF758F90749084B5B1ADB0815
:10DB2C001B0402460B4943F00100FFF771FCEEE7C2
:10DB3C000E20EDE7C822002090E60100F8E6010077
:10DB4C0017EF01005DEF0100A9EF0100F0EF0100FC
:10DB5C003CF001008DF00100F8B506460768FFF7B0
:10DB6C0005FF3368BB4205461DD9194B194C1A49A0
:10DB7C00E41AE408240444F002042046FFF744FCB1
:10DB8C00336816493A462046FFF74BFC4FF080535A
:10DB9C003268D3F80C3112499B0203F100539A1AE4
:10DBAC002046FFF735FC25B90E4B01221A7028468A
:10DBBC00F8BD2846FFF708F90549064B5B1ADB0848
:10DBCC001B040246084943F00100FFF721FCEEE775
:10DBDC0090E60100F8E60100E0F001000FF1010011
:10DBEC0040F10100EB3600206AF101004BDF704779
:10DBFC001FB501A8FFF7FAFF70B90C4902A8FFF78F
:10DC0C008EF8039B002BF4D00198D3E900219047A8
:10DC1C0002A8FFF78CF8F4E7052804D005B05DF8EE
:10DC2C0004EBFEF731B905B05DF804FB0CF4010010
:10DC3C00002B35D129B9B0FBF2FC0CFB120260466B
:10DC4C007047914215D22DE9F041B2FA82F39A4015
:10DC5C009940D3F1200C30FA0CFC51EA0C0198409D
:10DC6C0000F04EF8280036FA03F200210023BDE83C
:10DC7C00F081F0B5B1FBF2FC0CFB1211B2FA82F39D
:10DC8C009A409940D3F1200630FA06F63143984079
:10DC9C0000F036F8614628003200DA400023F0BD6F
:10DCAC00F3B5B3FA83FC49085FEA300013FA0CF3BE
:10DCBC00DCF1200432FA04F423430CB41A0000F013
:10DCCC001FF80CBC33FA0CF3DCF11F0C35FA0CF515
:10DCDC0018BF013D03BCA5FB026705FB0377801B46
:10DCEC00B941904271EB030C05D3821A71EB03031B
:10DCFC00681C0021F0BD02000B0028000021F0BDC3
:10DD0C00940D4FF6C2752D02B5FBF4F4D60A01360C
:10DD1C0004FB04F5A5FB0656F64306EB0416550862
:10DD2C0032BF00277708013505FB1677A6FB07479E
:10DD3C007F0807EBC63714001500E7FB02457F1B75
:10DD4C004D1C0400E7FB014505FB1206A64284BFEF
:10DD5C00013DB618964224BF0135B61A704700BF74
:10DD6C0010B582B004468DF80710006978B1D4E97B
:10DD7C0000239A4231D26269531C63618154D4E905
:10DD8C000501884229D1204600F02CF825E0E068F6
:10DD9C0050B1D4E9002C62451FD2531CB3EB0C03D9
:10DDAC0018BF0B46835418E0A06858B1D4E9002C76
:10DDBC00624512D2531CB3EB0C0318BFCBB240F824
:10DDCC0022300AE0236A43B1D4E90001884204D22C
:10DDDC000DF1070120460122984720680130206090
:10DDEC0002B010BD42694AB110B50446036A002B5B
:10DDFC001CBF216998470020606110BD7047012A43
:10DE0C000ADB70B514460D46064630462946FFF728
:10DE1C00A7FF013CF9D870BD7047CB0605D4890526
:10DE2C004CBF30212021FFF7EABF704738B50446BC
:10DE3C0000F07CFB054620460021242200F046FB26
:10DE4C00E56138BD81B070B58BB014460D46064601
:10DE5C000F930FA8009001A8FFF7E8FF0295049616
:10DE6C00009A01A8214600F005F80BB0BDE87040FF
:10DE7C0001B070472DE9F04F8BB004928946824671
:10DE8C000020CAF800000DF1160CACF10100019055
:10DE9C00062419F8011B252908D0002900F06C82F2
:10DEAC005046FFF75DFF0DF1160CF2E700274946CF
:10DEBC0019F8012BA2F12003102B0DD88020DFE8DC
:10DECC0003F0091B1B191B1B1B151B1B31181B10EB
:10DEDC001B1B120040200DE05E2A0DD14FF4805028
:10DEEC0008E0102006E04FF4007003E04FF400400F
:10DEFC0000E020200743DAE701F10109A2F130002C
:10DF0C00C0B209284FF000001BD800EB800002EBD8
:10DF1C004000303819F8012BA2F13001C9B20A299E
:10DF2C00F3D30EE0049850F8042B0490002A10460A
:10DF3C0048BF5042102303EAD26217434A7801F1DA
:10DF4C0002092E2A0DD1494611F8012B2A2A0BD190
:10DF5C0099F80120049909F1020951F804BB0491C4
:10DF6C0017E04FF0000B1DE0A2F13003DBB2092BE0
:10DF7C004FF0000B13D80BEB8B0302EB4302A2F117
:10DF8C00300B11F8012BA2F13003DBB20A2BF2D3C8
:10DF9C008946BBF1000F05D447F4807702E047F4C3
:10DFAC0080778946A2F16801CBB2C90141EA5301DD
:10DFBC00C9B209292AD8DFE801F0121E082929293B
:10DFCC000529290519F8012B20E0494611F8012BE8
:10DFDC006C2A15D199F8012009F102090DE0494686
:10DFEC0011F8012B682A0ED199F8012009F10209C8
:10DFFC0047F008070AE019F8012B47F0020705E083
:10E00C0047F0010701E047F00407894620EAE07871
:10E01C00622A20DDA2F1630015283FF63AAFDFE853
:10E02C0010F03E0017001600160016001600170020
:10E03C001600160016001600A5004C001001160064
:10E04C0016002F001600560016001600220020E7BE
:10E05C0047F480473FE0252A00F09780582A40F08B
:10E06C009C8147F40057F8054FEA076048BF27F436
:10E07C000077782A43F2580126D143F2780123E045
:10E08C0004980468002C04BF4FF23844C0F2010419
:10E09C00F805204600F1488100F093F947E1049D12
:10E0AC00A8F101062C78504639463246FFF7B5FEEA
:10E0BC0050462146FFF754FE4CE1F8054FEA076045
:10E0CC0048BF27F40077302101EAE07004E0F8053E
:10E0DC0048BF27F400770020CDE9028078044FEA8E
:10E0EC00877005D4002804980AD4031D00210DE084
:10E0FC00002814D4049951F8040B0491C11716E0AC
:10E10C00073020F0070000F10803416800687D0724
:10E11C0015D417F0080514D0C0B2002111E00498F2
:10E12C00073020F00703596853F8080B04937B075A
:10E13C0009D43B070AD540F3C01140B206E080B2C7
:10E14C000021049325E040F3C03100B2002907DB25
:10E15C00BB061CD47B06039D48BF2025039518E005
:10E16C000023404263EB01012D2311E0049951F887
:10E17C00040B04913907DAF8001000F1FB80BA07A0
:10E18C0052BF0160002206C083E6252188E62B23BE
:10E19C000393FB0548BF27F40077FB0558BF4FF0EE
:10E1AC00010B00266E2A21DD6F3A092A00F27A80D3
:10E1BC00DFE802F00556787878782278785650EABD
:10E1CC0001026FD0C20842EA4172134664F3DF00C9
:10E1DC000CF80600CD08013652EAD1004FEAD20005
:10E1EC0040EA457218462946EFD15BE0582A37D0F1
:10E1FC00642A18BF692A55D150EA010252D00C4644
:10E20C000546380407D506F00300032802BF2C206E
:10E21C000CF806000136E04628460A220023FFF7D8
:10E22C0007FD00EB8002A5EB420242F0300208F839
:10E23C0006200136D5F109020022A241C446DED3E4
:10E24C0030E03806232101EAE070CDE90280049920
:10E25C0047F4807751F8040B049100214FF0080B20
:10E26C00002650EA01021DD0BA044FF21842C0F247
:10E27C0001025CBF4FF22842C0F20102030943EADB
:10E28C00017500F00F002B46105C0CF806000C0911
:10E29C00013655EA11104FEA151040EA047518467C
:10E2AC002146EED1DDE902254FF0FF30FF2D88BF6E
:10E2BC000138ABEB060121EAE17806EB0801A2EB91
:10E2CC00010B002D18BF8344B80506D450463946BF
:10E2DC005A46FFF7A2FD4FF0000BFF2D019C04D90D
:10E2EC00290A5046FFF73CFD00E01DB15046294677
:10E2FC00FFF736FD504639465A46FFF78EFD50461D
:10E30C0030214246FFF77BFD012E05DBA15D504617
:10E31C00FFF726FD013EF9D80DF1160C0624F80680
:10E32C007FF5B7AD5A461EE0594600F05FF805463A
:10E33C0027F40077A8EB0006504639463246FFF723
:10E34C006CFD35B114F8011B5046FFF709FD013D7A
:10E35C00F8D1049D043504950DF1160C0624F8062D
:10E36C007FF597AD324650462021FFF748FD0DF161
:10E37C00160C8EE501708CE5DAF80C0028B1DAE9A0
:10E38C00001291423CBF002242545046FFF72AFD36
:10E39C00DAF800000BB0BDE8F08F002A7FF479ADFD
:10E3AC005046FFF71FFD4FF0FF30F3E7082907D366
:10E3BC0043F2EC62C2F2000210600022C0E90021BC
:10E3CC007047017881B100214FF001324358C2FAF5
:10E3DC0053F30431002BF9D093FAA3F0B0FA80F088
:10E3EC0001EBD000043870470020704700291CBF97
:10E3FC000278002A01D10020704700B5D0F800E067
:10E40C000429034609D34FF0013CCCFA5EF222B941
:10E41C00043953F804EF0329F7D8181A4FF00132D6
:10E42C00C2FA5EF292FAA2F2B2FA82F2B1EBD20F17
:10E43C0088BFD108084400BD0246F0B44FF0013744
:10E44C00FB0151F8044BE51BA5431D4002D142F8DA
:10E45C00044BF6E70439F0BC11F8013B02F8013B20
:10E46C00002BF9D1704700BF5AB3844690EA0103E0
:10E47C009B071FD1830707D011F8013B00F8013B24
:10E48C00013AF7D11CE08446203A09D32DE9F00774
:10E49C00B1E8F807A0E8F807203AF9D2BDE8F00790
:10E4AC001C3205D451F8043B40F8043B043AF9D231
:10E4BC00043205D011F8013B00F8013B013AF9D1C7
:10E4CC006046704700220B0011001A0084465AB3B4
:10E4DC00830704D000F8011B013AF9D124E0C9B23A
:10E4EC0041EA012141EA0141202A11D3203A2DE9C8
:10E4FC00F0030B460C460D460E460F4688468946E1
:10E50C00A0E8FA03203AFBD2BDE8F00320320BD08E
:10E51C00042A05D340F8041B043A05D0042AF9D286
:10E52C0000F8011B013AFBD16046704743F2F060E2
:10E53C00C2F200000068002804BF42F2FC20C2F2C4
:10E54C000000704784460020002918BF002A0ED016
:10E55C00097848B200280BD4BCF1000F18BFCCF8D6
:10E56C0000100021C3E90011002818BF01207047DA
:10E57C006FF0010070477F298EBF6FF001000170B2
:10E58C000120704743F2F061C2F2000109680029D2
:10E59C0004BF42F2FC21C2F20001496889680A6892
:10E5AC00092110477F280BD84FF2D452C0F2010238
:10E5BC00105C4FF25462C0F20102515C084070478B
:10E5CC0000207047A0F161011A2938BF203870472C
:10E5DC00A0F141011A2938BF40F0200070477F2874
:10E5EC000BD84FF2D452C0F20102105C4FF25462BD
:10E5FC00C0F20102515C0840704700207047A0F146
:10E60C0061011A2938BF20387047A0F141011A293D
:08E61C0038BF40F020007047F8
:08E62400F1B10100000000004B
:10E62C0065AB01000000000015AE0100AC2300201A
:10E63C00419D010000000000D9A90100000000006C
:10E64C00BBAF0100A02300206DB00100BC23002053
:08E65C007995010000000000A7
:08E6640071B20100000000008A
:10E66C00D9D9010000000000FDDB01000000000012
:10E67C009033002058340020603400209833002060
:04E68C001800000072
:10E6900000EA01000000000006EA0100000000009E
:10E6A00081E90100000003030DEA01000000000001
:10E6B00011EA01000000000016EA0100000000005D
:10E6C0006BEE0100000003031CEA010000000000E3
:10E6D00040EA010000000000F2E901000000000033
:10E6E000FAE9010000000000E5E901000000030371
:10E6F0000FEF01000000030387F101000000030396
:10E7000093F10100000003037EEA01000000000015
:08E7100087EA0100000000008F
:10E7180088F30100000000004AEE0100F422002006
:10E7280064422053504C3A2025642E25640D0A007B
:10E73800436F6E6E65637465640041757468656ED9
:10E748007469636174696F6E2074696D6572207392
:10E75800746172746564202D2032207365636F6E56
:10E76800647320746F2061757468656E7469636181
:10E77800746500446973636F6E6E656374656400E5
:10E788004661696C656420746F2073746F702061D2
:10E798007574682074696D65723A20307825780040
:10E7A80041757468656E7469636174696F6E20730E
:10E7B80075636365737366756C21204944206D61C8
:10E7C80074636865643A202530366400417574685E
:10E7D800656E7469636174696F6E206661696C65E2
:10E7E80064212045787065637465643A2025303665
:10E7F800642C2052656365697665643A2025303655
:10E8080064004661696C656420746F206469736391
:10E818006F6E6E6563743A203078257800496E769D
:10E82800616C69642061757468656E74696361748C
:10E83800696F6E2064617461206C656E6774683AF4
:10E8480020256420286578706563746564203629FE
:10E858000041757468656E7469636174696F6E20D0
:10E8680074696D656F7574202D20646973636F6EAC
:10E878006E656374696E67004661696C65642074CF
:10E888006F20646973636F6E6E6563743A20657296
:10E89800726F7220636F6465203078257800536545
:10E8A8006E6420627574746F6E2073746174652071
:10E8B8006368616E67652E00526563656976656495
:10E8C800204C4544204F4E210052656365697665AA
:10E8D80064204C4544204F46462100445553515F1F
:10E8E800434841524745520041757468656E7469E2
:10E8F800636174696F6E20736572766963652069F8
:10E908006E697469616C697A6564004175746865DB
:10E918006E7469636174696F6E204944207365740D
:10E9280020746F3A202530366400426C696E6B792A
:10E93800206578616D706C652073746172746564AC
:10E948002E0050444D204D69632064422053504CA2
:10E95800204D6F6E69746F720D0A0046756E637490
:10E96800696F6E3A2025732C206572726F7220636E
:10E978006F64653A2025732E0050444D0073645F20
:10E98800626C655F67617474635F65786368616E04
:10E9980067655F6D74755F72657175657374282935
:10E9A8002072657475726E65642025732E00736419
:10E9B8005F626C655F67617474735F6578636861D3
:10E9C8006E67655F6D74755F7265706C7928292054
:10E9D80072657475726E65642025732E006E72669A
:10E9E8005F626C655F6761747400626C655F6E7509
:10E9F8007300636C6F636B00434C4F434B0047508D
:10EA0800494F544500505253005541525400554106
:10EA1800525445006170705F627574746F6E004681
:10EA28006174616C206572726F72005379737465DA
:10EA38006D207265736574006170705F74696D65CF
:10EA4800720052544320696E7374616E636520616D
:10EA58006C726561647920696E697469616C697A40
:10EA680065642E005254433A20696E697469616C7A
:10EA7800697A65642E007077725F6D676D740073D4
:10EA88006F72746C697374004E52465F53554343FA
:10EA9800455353004E52465F4552524F525F5356AC
:10EAA800435F48414E444C45525F4D495353494E8C
:10EAB80047004E52465F4552524F525F534F46549D
