:020000021000EC
:1090000000600020499201000192010003920100DA
:109010000592010007920100099201000000000082
:109020000000000000000000000000000B920100A2
:109030000D920100000000000F920100119201004A
:1090400099A1010013920100C9A30100139201002C
:10905000139201000000000049A2010013920100D8
:109060001392010013920100139201001392010068
:109070001392010013920100139201001392010058
:109080001392010055A901001392010013920100EF
:10909000139201001392010021BA01001392010002
:1090A0001392010013920100000000000000000074
:1090B00013920100F996010000000000000000007A
:1090C00000000000000000000000000000000000A0
:1090D0000000000000000000000000000000000090
:1090E0000000000000000000000000000000000080
:1090F0000000000000000000000000000000000070
:10910000000000000000000000000000000000005F
:10911000000000000000000000000000000000004F
:10912000000000000000000000000000000000003F
:10913000000000000000000000000000000000002F
:10914000000000000000000000000000000000001F
:10915000000000000000000000000000000000000F
:1091600000000000000000000000000000000000FF
:1091700000000000000000000000000000000000EF
:1091800000000000000000000000000000000000DF
:1091900000000000000000000000000000000000CF
:1091A00000000000000000000000000000000000BF
:1091B00000000000000000000000000000000000AF
:1091C000000000000000000000000000000000009F
:1091D000000000000000000000000000000000008F
:1091E000000000000000000000000000000000007F
:1091F000000000000000000000000000000000006F
:10920000FEE7FEE7FEE7FEE7FEE7FEE7FEE7FEE736
:10921000FEE7FEE709480068094909680A280AD1FB
:10922000002908D1074802686FF070031A404FF018
:1092300040031A43026000F009B80000300100103A
:1092400034010010E40E0040FFF7E4BF0B484FF07C
:109250000701884385460A48804700F019B8094845
:1092600009490A4A884207D0521A05D003780130CA
:109270000B700131013AF9D1704700000060002005
:10928000B99A01009CC50100C8220020C822002014
:1092900039493A480A1A02D0072291438D46384983
:1092A00038480A1A06D00722914381F3098802221E
:1092B00082F3148834483549354A00F03EF8354881
:1092C0003549364A00F039F835483649364A00F013
:1092D00034F836483649374A00F02FF836483749CF
:1092E000374A00F02AF837483749384A00F025F85D
:1092F00037483849384A00F020F8384838490022C1
:1093000000F033F837483849002200F02EF837488B
:109310003749091A02F09AFF364A904724482549EE
:10932000884205D00268043003B4904703BCF7E7D5
:1093300000200021304A9047FEE7884214D0521A9C
:1093400012D003460B4313430324234206D1036880
:1093500004300B600431043AF9D1704703780130CE
:109360000B700131013AF9D17047884202D0027086
:109370000130FAE77047000000600020005800202C
:1093800000600020006000204CCF0100C8220020B7
:10939000F4220020FC930100FC930100B8C40100FA
:1093A0004CCF0100C8220020C82200209CC501002B
:1093B0009CC501009CC501009CC501009CC5010025
:1093C0009CC501009CC501009CC5010049CF01005E
:1093D00078CF0100F4220020F4220020F4220020A3
:1093E000B4320020B4320020B4320020B432002065
:0C93F000B43A00205F92010029950100B2
:1093FC00037813B1022B00D07047024B01221A7074
:10940C00704700BFC822002008B5094B0A461978DE
:10941C0051B1002119700146064801F063F928B1D9
:10942C00BDE8084001F0A8B920BFF0E708BD00BFB7
:10943C00C822002008CB010037B54168044689B327
:10944C00881E002201F2FE31002330F9025F8142B6
:10945C00C5FB8523F9D1510A51EAC3511AD04A1CD4
:10946C0052080B469A422FD3A3B11A460021012A67
:10947C0030D18A409A1A4FF47A7042433C23CA4046
:10948C005A43B2FBF0F203FB01221E4BA2F28732CD
:10949C009A4222DA1C491D4802F018FF0C211B4885
:1094AC00FFF7B2FF237853B3194A1A4813780133E4
:1094BC0003F001034FF4007100EB8320137003B031
:1094CC00BDE8304000F05ABAB1FBF2F0104413463C
:1094DC004208C7E752080131C9E70A21002A92FB6A
:1094EC00F1F301FB132102DA09B1013B0A310091BE
:1094FC00094A0648402102F0EFFB0146CFE703B0D2
:10950C0030BD00BFF2D8FFFF9CC50100F422002043
:10951C003423002036230020A9C5010000B5032206
:10952C008DB00423CDE904234FF0FF33CDE906338E
:10953C0000230893ADF824304FF0EB730A931F4AC5
:10954C001F48062304A98DF82C3001F001F808B14E
:10955C0001F012F91B4B04AA03F11805186859689D
:10956C00144603C40833AB422246F7D119889B78C2
:10957C002180A3701A2104A8134DFFF745FF642422
:10958C0045F001054FF47A40A847013CFAD10F4A47
:10959C0007CA01AB83E8070042F220020C49ADF880
:1095AC000C20184600F020F908B101F0E5F800F0A5
:1095BC00A9F920BF40BF20BFFBE700BFFD9301000E
:1095CC0008CB0100B7C5010000CB010010CB010096
:1095DC0045940100032811D8012A0AD101290FD181
:1095EC0000F10E02D2B20D4B00EB40001A540020D9
:1095FC0070470129F7D0022904D049B107207047E0
:10960C000022F8E7054B00EB400003445A70EEE7EC
:10961C00024B00EB400003449A70E8E7362B002025
:10962C0008B5012202210020FFF7D4FF08B107285A
:10963C0010D1072202210120FFF7CCFF08B1072827
:10964C0008D100210A220846FFF7C4FF10B10728F1
:10965C0008BF002008BD00000388102B10B502D0F5
:10966C00112B22D010BD194C2168D1B9012208460A
:10967C00FFF7B0FF08B107280FD107220221012004
:10968C00FFF7A8FF08B1072807D104220221002008
:10969C00FFF7A0FF28B1072803D00D4B1B6803B1BF
:1096AC009847236801332360DCE7084A1368013BC1
:1096BC001360002BD6D1FFF7B3FF0028D2D0044B98
:1096CC001B68002BCED0BDE810401847442B00205F
:1096DC00482B002000F1804000F5E830002382B0D8
:1096EC00036003680193019B02B070471FB53C49AE
:1096FC003C4CD1F80021002A47D04FF48070FFF782
:10970C00E9FFA37CDA4302F0010204EB8201496811
:10971C0011B9617C02292DD1607C022818BF04EBA1
:10972C0083034FF000010BBF012358686374596029
:10973C004FF001038DF80C10E1740EBF02910290F2
:10974C00A2748DF80430236801A89847637C022B1F
:10975C0001D101236374237D53B101238DF80430AF
:10976C00002302938DF80C30237501A823689847C9
:10977C0004B010BDE37C002BE8D18DF804300293CB
:10978C0001238DF80C30E374DDE7D1F80431002BA4
:10979C00E1D04FF48270FFF79DFFC1F80025A37C48
:1097AC00627404EB83038DF80C2059688DF8042047
:1097BC0021B15A600291236801A89847A37CDB432E
:1097CC0003F0010304EB83035A682AB102920022CE
:1097DC005A6001A8236898470023A374BBE700BF15
:1097EC0000D001404C2B00202DE9F0413E4B3F4D69
:1097FC003F4EED1A347CED0802462D0464B108206E
:10980C0001F04EFC3B4A3C49034645F0020001F096
:10981C003BFF0820BDE8F08190F808C0BCF1500F68
:10982C0002D8477A502F0BD9072001F039FC314A66
:10983C003149034645F0020001F026FF0720E9E715
:10984C0031602E4943687482C6E901447474C1F8CE
:10985C000435437800785B0000F0010003F002034C
:10986C000343C1F80835C1F818C5C1F81C759378C5
:10987C004FF0A04003F5E0774FF0030840F8278045
:10988C00012707FA03FCC0F80CC592F803C00CF5CD
:10989C00E07E40F82E40C1F840354FF48070C1F89E
:1098AC0044C5FFF717FF4FF48470FFF713FF4FF415
:1098BC008270FFF70FFFC1F80483937A104A5B01A3
:1098CC00DBB282F81D334FF000531360204637741F
:1098DC0001F0E6FB074A0849034645EA080001F097
:1098EC00D3FE204696E700BF04C5010014C5010055
:1098FC004C2B00202BCB0100D2C5010000D0014025
:10990C0000E100E010B5174B174C18495A7C641A4B
:10991C00E408240402F0FF00D2B15B7C012B0BD1D4
:10992C00002001F0BDFB124A1249034644F003002B
:10993C0001F0AAFE00200AE0112001F0B1FB0C4A54
:10994C000C49034644F0020001F09EFE112010BDAC
:10995C0002225A7401221A75074B4FF00052C3F8B9
:10996C000021DEE74C2B002014C5010004C50100CA
:10997C001CCB0100D2C5010000E100E070B51E4A0D
:10998C00157C002D32D0537C032B31D090B30B04BB
:10999C0030D41A4B4FF00054C3F88040537C947C65
:1099AC00023B18BF012323EA040302EB830466681D
:1099BC00D6B9606002EB4303114C9981022DC4F8B7
:1099CC006005C4F8641509D0022313740122C4F88D
:1099DC0000254FF48070FFF77DFE22600020074BBE
:1099EC004FF000521A6070BD1120F8E70820FAE71A
:1099FC001120F8E70720F6E74C2B002000E100E0EF
:109A0C0000D001404FF0704393F8E02F062A10D19C
:109A1C00D3F8E42F12070CD1D3F8E80F00F0F003C1
:109A2C00302B08D000F0E000A0F140035842584120
:109A3C00704700207047012070474FF0704393F837
:109A4C00E02F062A0CD1D3F8E42F120708D1D3F853
:109A5C00E80F00F0F000A0F1300358425841704775
:109A6C00002070474FF08053D3F830210A2A03D1DD
:109A7C00D3F83431012B16D94FF0704393F8E02F03
:109A8C00062A10D1D3F8E42F12070CD1D3F8E80F23
:109A9C0000F0F003302B06D000F0E000A0F1400302
:109AAC0058425841704701207047000008B5FFF735
:109ABC00A9FF40B14FF08053984AD3F82433C3F335
:109ACC000423C2F84035FFF7B8FF10B1944B954A08
:109ADC005A67FFF7C7FF48B14FF080534FF08042F1
:109AEC00D3F84432C3F34233C2F83C35FFF7A5FF39
:109AFC0030B18D4AD2F8FC3023F08073C2F8FC30C0
:109B0C00FFF7B0FF40B14FF080430022C3F80C21A7
:109B1C00C3F81021C3F83825FFF78FFF20B14FF0A1
:109B2C0080430322C3F8A025FFF787FF60B17F4B6A
:109B3C000522C3F810260122C3F888260022C3F898
:109B4C0018263F22C3F814264FF08053D3F8302147
:109B5C000A2A03D1D3F83431012B0FD94FF07043BB
:109B6C0093F8E02F062A09D1D3F8E42F110705D179
:109B7C00D3F8E83F03F0F003502B46D14FF080525E
:109B8C006B4BD2F80414C3F82015D2F80814C3F8A0
:109B9C002415D2F80C14C3F82815D2F81014C3F8F5
:109BAC002C15D2F81414C3F83015D2F81814C3F8C5
:109BBC003415D2F81C14C3F84015D2F82014C3F88D
:109BCC004415D2F82414C3F84815D2F82814C3F855
:109BDC004C15D2F82C14C3F85015D2F83014C3F825
:109BEC005415D2F83414C3F86015D2F83814C3F8ED
:109BFC006415D2F83C14C3F86815D2F84014C3F8B5
:109C0C006C15D2F84424C3F870254FF08053D3F868
:109C1C0030210A2A06D1D3F834311BB9454BFB222B
:109C2C00C3F81825FFF7EEFE48B14FF080534FF004
:109C3C008042D3F8583203F04F03C2F8E43EFFF7EA
:109C4C0011FF48B14FF08043D3F80024D20744BF32
:109C5C006FF00102C3F800244FF08053D3F8302189
:109C6C00062A4BD1D3F83431062B40D04FF080422A
:109C7C00D2F8E43E43F00F03C2F8E43E4FF0102359
:109C8C00D3F80022002A03DBD3F80432002B40DA8D
:109C9C00294B0122C3F80425D3F80024002AFBD059
:109CAC004FF010221521C2F80012D3F80024002A1C
:109CBC00FBD04FF010231522C3F804221E4BD3F80F
:109CCC000024002AFBD00022C3F80425D3F800247A
:109CDC00002AFBD0BFF34F8F1349184BCA6802F40C
:109CEC00E0621343CB60BFF34F8F00BFFDE7144A14
:109CFC00D2F83C3743F48063C2F83C374FF08053C2
:109D0C00D3F830210A2AB1D1D3F83431002BADD19C
:109D1C00B4E70C4B0C4A1A6008BD00BF0030014080
:109D2C0000C007400DF0ADBA00ED00E0005000405F
:109D3C0000C0004000F0004000E001400400FA05C3
:109D4C0000100040CC2200200090D003034B1A8856
:109D5C0082420CBF18460020704700BF882B0020A1
:109D6C00024B9B6903B11847704700BF6C2B002056
:109D7C0013B50B46497A02460E4871B9D0E9014138
:109D8C00187A002808BF2146586800F071FD78B198
:109D9C0002B0BDE81040FFF7E3BF00211972436920
:109DAC0033B101218DF80410ADF8062001A89847B5
:109DBC0002B010BD6C2B00204B8802889A4213D83D
:109DCC0042889A4210D383888A8840F2F3118B42DE
:109DDC0094BFD81A581A90420B448CBF0020012013
:109DEC00934238BF00207047002070470388122B25
:109DFC0070B5014659D004D8102B1ED0112B44D06D
:109E0C0070BD502BFCD12F4BC288DB899A42F7D105
:109E1C00038A022BF4D186883046FFF797FF05465C
:109E2C000028EDD001F1120000F0F4F838BB68689E
:109E3C0000F036FD0028E3D009E0C37B012BDFD115
:109E4C004FF6FF70FFF782FF054620B90420BDE8EE
:109E5C007040FFF785BF1C4A8E8806800023037272
:109E6C001368C0F80A305368C0F80E3010310A304D
:109E7C00FFF7A2FF134B6872DB89002BC0D1294678
:109E8C003046BDE87040FFF773BF8088FFF75EFF78
:109E9C0004460028B4D0406800F002FD08B1FFF77A
:109EAC005FFF4FF6FF732380AAE786883046FFF7E3
:109EBC004DFF05460028A3D008310A30FFF77CFF80
:109ECC006872DCE76C2B0020642B00200AB100F0D8
:109EDC0083BD00F08ABD73B50191019C06466CB13F
:109EEC0000252C46294601A800F089FD18B106EB87
:109EFC00440301349D800135142DF3D13046346078
:109F0C0002B070BD2DE9F04703888488103B8CB0FB
:109F1C0005460A2B21D8DFE803F00640202020203C
:109F2C00202020654700DFF8D080D8F80830DB43CC
:109F3C000093D8F80410684600F08DFD009901A834
:109F4C00FFF7C9FF0DF106090027019B9F4207D3BC
:109F5C00132C12D9042000F00FFC0CB0BDE8F087D4
:109F6C0039F802AF00260136514608EB860000F0A6
:109F7C003CFD1E2EF7D10137E7E72048214600F0C3
:109F8C002BFD1F48214600F027FDEB7B012BE4D075
:109F9C001C48214600F020FDDFE7184821460CB094
:109FAC00BDE8F04700F021BD027A17483F2A4FEA7E
:109FBC001215214694BF00220122FFF787FF022DC4
:109FCC0094BF0022012211482146FFF77FFF012D8B
:109FDC000F4894BF0022012221460CB0BDE8F04787
:109FEC00FFF774BF037A002BB7D1427A0648C2F34D
:109FFC00C0022146F1E700BF9C2B0020A42B0020BF
:10A00C00A02B0020A82B0020B42B0020B02B00206C
:10A01C00AC2B0020008800F00100704738B5084BCD
:10A02C00051EA3F1080214BF1C46144623682BB16D
:10A03C001A6822605B6828469847F7E738BD00BF6E
:10A04C00282C002020B9054B01225A70FFF7E6BFDF
:10A05C00012802D1014A9070F8E77047182C0020B3
:10A06C0020B9034B01225A70FFF7D8BF704700BFCD
:10A07C00182C002038B50B4C237883B90A48636040
:10A08C00A3602361E36000F059F8054601F0A8FCD9
:10A09C0008B900F05FF801232370284638BD8525E8
:10A0AC00FBE700BF182C002051A0010037B50B4C6A
:10A0BC0000230DF107008DF8073000F0F7FBE36883
:10A0CC00013BE360E56815B900F056F8A5709DF802
:10A0DC00070000F00FFC03B030BD00BF182C0020AF
:10A0EC00012813B508D003281CD018B9114B012234
:10A0FC00C3F8802002B010BD0F4C00230DF10700F7
:10A10C008DF8073000F0D2FB23780BB9FFF7B2FFC4
:10A11C00E3689DF807000133E3600123A37000F0AE
:10A12C00E9FBE7E700F016F802B0BDE81040FFF7D6
:10A13C00BDBF00BF00E100E0182C0020044B02461C
:10A14C00187918B91A6001229A80704785207047D7
:10A15C002C2C0020074B1A68D2075FBFC02283F853
:10A16C00002301221A604FF080430122C3F8182506
:10A17C00704700BF00E100E04FF080430122DA603D
:10A18C00D3F81824D203FBD4704700004FF080435F
:10A19C0007B5D3F800217AB10022C3F80021D3F817
:10A1AC0000210092009A0122C3F808230F4B587922
:10A1BC0010B95A711B6898474FF08043D3F80421AB
:10A1CC0082B10022C3F80421D3F804210192019A30
:10A1DC000222C3F80823054B1B68012003B05DF86D
:10A1EC0004EB184703B05DF804FB00BF2C2C0020D7
:10A1FC0000F1804000F5C040002382B0036003688A
:10A20C000193019B02B07047800000F1A040D0F890
:10A21C00003723F44033C0F80037D0F8003743EA56
:10A22C000143C0F800377047C208012300F0070053
:10A23C008340885C03438B54704700002DE9F04F3A
:10A24C0085B00024594D01944FF48072012102F124
:10A25C00804303F5C0431B68012B07D1D5F80433A9
:10A26C000B4203D090B2FFF7C3FF0C430432B2F59C
:10A27C00907F4FEA4101EAD14C4BD3F87C31012B52
:10A28C000AD14FF4BE70FFF7B3FF4FF0A04344F078
:10A29C000044D3F810350193E3B2D3B1444F0025F9
:10A2AC000126344210D0AB0003F1804303F5C043C8
:10A2BC00D3F81005D3F8101557F8253023B1C1F396
:10A2CC000141C0F3042098470135082D4FEA46069A
:10A2DC00E7D1002C66DA4FF0FF3303934FF00009FF
:10A2EC00344F002617F9014F631C4CD0C4F3C2083D
:10A2FC000123E5B204F03F0A04F0070403FA04F466
:10A30C0008F110030DEB030818F8043C23423AD073
:10A31C00274A02EB0A03AD0993F9303052F823B007
:10A32C00BBF1000F0AD1032D2DD102A95046CDF857
:10A33C000890FFF779FFDDF8089001E0032DF4D0C9
:10A34C000AF5E0714FF0A04318F80CCC53F821102B
:10A35C001CEA040FC1F3014105D0022913D1032DCE
:10A36C000BD1294604E003290DD1032D05D102217F
:10A37C005046FFF749FF0136F6B2BBF1000F02D091
:10A38C0029465046D8470C4B9F42ABD156B14FF0A3
:10A39C00A0430199D3F810358B4203D00193CDF82B
:10A3AC000C909DE705B0BDE8F08F00BF0060004049
:10A3BC00342C0020832C0020872C0020014B1B68A0
:10A3CC00184700BF902C00200D4B984237B50C4617
:10A3DC0011D100230DF107008DF8073000F066FA5B
:10A3EC00084B1D7915B901221C601A719DF80700E4
:10A3FC0000F080FA15B9002003B030BD1120FBE746
:10A40C0000200040902C0020002382B04350435881
:10A41C000193019B02B070471FB501238DF80030EA
:10A42C00044BCDE90110D3E900126846904705B002
:10A43C005DF804FB982C00207FB5434AD2F82461C8
:10A44C00002E60D010464FF49271FFF7DDFF02230F
:10A45C008DF80030D2F88034C2F880340393D2F8EF
:10A46C003C350293394BDA6801920022C3E906228B
:10A47C006846D3E9001290473348D0F8443173B1A1
:10A48C004FF4A271FFF7C0FF304B9A693AB100222A
:10A49C00D0F83C05D968C3E90622FFF7BDFF2A486E
:10A4AC00D0F82031ABB14FF49071FFF7ADFF012321
:10A4BC00C360264B5A6962B1D0F84C150291002248
:10A4CC0099688DF8002001915A616846D3E9001211
:10A4DC0090471D48D0F858319BB14FF4AC71FFF741
:10A4EC0093FF1A4B5A6962B1D0F84C1502910022B5
:10A4FC0099688DF8002001915A616846D3E90012E1
:10A50C00904704B070BDD2F81031002BB4D04FF48A
:10A51C0088711046FFF778FF0C4BD2F83C0599690F
:10A52C008842A9D1DC69D96864B1D2F8005225F00F
:10A53C002005C2F800521A699C61DA60DE61FFF7EF
:10A54C006BFF99E79C61FAE700200040982C0020F3
:10A55C002DE9F047584D90F80480242303FB085351
:10A56C00814693F820300C469246002B40F09F8099
:10A57C0052490068FFF728FF0746002840F09980F1
:10A58C002368D9F80060591C0AD04FF0A041012271
:10A59C009A40C1F8082503F5E072032041F8220027
:10A5AC0061684A1C1FBF01F5E0724FF0A0404FF0EC
:10A5BC00000C40F822C0A269C6F82425207D627DDB
:10A5CC00012842EA0002C6F86C25C6F80C35C6F81C
:10A5DC0014151CD1A268501C1FBF02F5E0734FF07C
:10A5EC00A041002041F82300E368591C0BD04FF028
:10A5FC00A04001219940C0F8081503F5E0714FF017
:10A60C00030C40F821C0C6F80835C6F810252423E1
:10A61C0003FB08F3EA18C2F804A02269EA50BAF165
:10A62C00000F34D0D9F80000227F4FF48871FFF767
:10A63C00EBFE4FF49071FFF7E7FE4FF49271FFF7CA
:10A64C00E3FE4FF4A271FFF7DFFE4FF4AC71FFF79E
:10A65C00DBFE1B4BC0F8043340F30733002BADBFBC
:10A66C0003F16041174903F00F0001F561414FEA16
:10A67C004212D2B2B4BF0A5481F800235909012204
:10A68C0003F01F0302FA03F30F4A42F821300823A8
:10A69C00C6F80035242303FB08550023C5E906330F
:10A6AC006B61012385F820303846BDE8F087082718
:10A6BC00FAE71127F8E700BF982C002045A4010009
:10A6CC001003420014ED00E000E100E00279044BBD
:10A6DC00242101FB02335869003818BF0120704750
:10A6EC00982C002001F06043B3F1005F2DE9F04796
:10A6FC0081460E46924636D190F80480FFF7E6FF6D
:10A70C00044690BB1B4FD9F80020242505FB087587
:10A71C004FF490711046C5F814A0AE60FFF774FEAC
:10A72C004FF4AC71FFF770FE6B69C2F84465C2F868
:10A73C004835012393606B68CBB9D2F82031D2F83D
:10A74C0058010343F9D060B90123D360D2F85831D2
:10A75C00002BFBD0242303FB087700237B61BDE88F
:10A76C00F0870F20F6E71020F9E71120F7E72046D5
:10A77C00F5E700BF982C00201FB50021039001AA1B
:10A78C0044F20100CDE9011100F004F805B05DF8C8
:10A79C0004FB000038B572B600F080FF00F010FE2C
:10A7AC000028FBD1104B114C114D1249E41AE4084E
:10A7BC00240444F0010000F063FFD5F8F030DB070F
:10A7CC0000D500BE0C4944F0020000F059FFBFF365
:10A7DC004F8FEA68094B02F4E0621343EB60BFF35E
:10A7EC004F8F00BFFDE700BF04C5010034C5010059
:10A7FC0000ED00E036C6010042C601000400FA0577
:10A80C0008B50A4800F08CF8094AD2E90031C018A2
:10A81C00084BD3E9002341F10001904271EB030393
:10A82C0003D210F1807041F1000108BDD02200204C
:10A83C00D82C0020D02C002037B505460C460A48F1
:10A84C0001A900F094F868B10570446001A90648AC
:10A85C0000F0B7F810B9002003B030BD034800F089
:10A86C0063F8F8E70420F7E7BC2C0020D022002086
:10A87C0038B5037F04460D4683B98261FFF7C0FFEC
:10A88C002369281841F10001C4E9020103B12561D3
:10A89C0021460020BDE83840FFF7CEBF002038BD70
:10A8AC000023014603770120FFF7C6BF70B5EFF315
:10A8BC00108672B60C4A9468012384B993600B4BD2
:10A8CC000B4DD3F8801029401160C3F88050D3F899
:10A8DC00841051604FF0FF32C3F88420234603707C
:10A8EC0006B962B670BD00BFE02C002000E100E0AC
:10A8FC00FC06FFBD084B9A6810B55AB150B9EFF37E
:10A90C00108172B6054A1C6814605C6854609860CB
:10A91C0001B962B610BD00BFE02C002000E100E0E0
:10A92C000368D3F80405704790F9043001215A09E3
:10A93C0003F01F03994002F14003024A42F823102E
:10A94C00704700BF00E100E0024B034A1B6810682F
:10A95C00184700BFF42C0020EC2C002050E8012FED
:10A96C00C2EA024240E80123002BF7D1704737B509
:10A97C0050E8013F9DB2C48925448489A54228BF73
:10A98C002D1B0489A54202BFBFF32F8F002207E0C5
:10A99C00C5EA030540E80154002CE9D14FF001024F
:10A9AC008DF803200193019A0A609DF8031001F0C1
:10A9BC00FF0321B1006810FA82F003B030BD1846D5
:10A9CC00FBE708B50A884B889A4203D1FFF7C6FF0C
:10A9DC00012008BD0020FCE701F01F024B090121FA
:10A9EC00914000EB830000F01EB801F01F03012220
:10A9FC009A404B0900EB8300D14300F02CB84B0973
:10AA0C0001F01F0150F82300C84000F0010070470E
:10AA1C0010B5034653E8000F0A4643E8002494F0AF
:10AA2C00000FF7D110BD10B5034653E8002F42EAD2
:10AA3C00010043E8000494F0000FF6D110BD10B5EE
:10AA4C00034653E8000F00EA010243E8002494F0A7
:10AA5C00000FF6D110BD10B5034653E8002F02EAE3
:10AA6C00010043E8000494F0000FF6D110BD10B5BE
:10AA7C00034653E8002F02EB010043E8000494F076
:10AA8C00000FF6D110BD10B5034653E8002FA2EB12
:10AA9C00010043E8000494F0000FF6D110BD012131
:10AAAC00FFF7C1BF0021FFF7CABF37B50546002429
:10AABC000DF107008DF80740FFF7F8FE2A6869686A
:10AACC0013688B420ED9591E116013F8013C288A69
:10AADC00EC6800FB0344AB685B1A1179DBB299425A
:10AAEC0038BF13719DF80700FFF704FF204603B031
:10AAFC0030BD37B5054600230DF107000C468DF827
:10AB0C000730FFF7D3FE2A681368591C1160EA68F6
:10AB1C00A41A2A8AB4FBF2F41C709DF80700FFF704
:10AB2C00E9FE03B030BD826810B504462AB1436912
:10AB3C000168006998470023A36010BD0EB403B5EB
:10AB4C00039921B104AB01AA019300F077F802B08C
:10AB5C005DF804EB03B070470A2938B504460D467E
:10AB6C0002D10D21FFF7F8FFA3682268591CA160E0
:10AB7C00D554D4E901329A4204D32046BDE838407A
:10AB8C00FFF7D1BF38BD00002DE9F84F9846DDE93D
:10AB9C000A43164682460F460A464FF00109B24256
:10ABAC000FD2C14538BFC14613F0010B01D16CB9AE
:10ABBC0000240125B8F1010F1CD908F1FF387543A9
:10ABCC00F8E709F10109B2FBF6F2E8E79B070ED5AD
:10ABDC00B8F1000F0CBF30252025A145E9D2013C6E
:10ABEC0029465046FFF7B8FF002CF6D1E0E72025A8
:10ABFC00F3E77543B7FBF5F39E42FAD9DFF83880DB
:10AC0C00B7FBF5F3504618F8031005FB1377FFF765
:10AC1C00A3FF2B46B342B5FBF6F5F1D2BBF1000F07
:10AC2C0000D034B9BDE8F88F20215046013CFFF725
:10AC3C0093FF4C45F8D8F5E739CB01002DE9F74FD8
:10AC4C00054690460F46002900F04C8117F8011B71
:10AC5C0049B92B7B002B00F04581284603B0BDE899
:10AC6C00F04FFFF760BF252940F0BE80002602E0C0
:10AC7C0046F001061F463B4613F8011B2D29F7D061
:10AC8C00302920D02B2921D02A291A4621D1D8F8B5
:10AC9C000020111D1468C8F800101F4639782E29A1
:10ACAC0026D101374FF0000A0A203A4612F8011B50
:10ACBC00A1F1300CBCF1090F1CD800FB0A11A1F159
:10ACCC00300A1746F1E746F00206D3E746F00406D1
:10ACDC00D0E7002412F8013CA3F130010929DDD89A
:10ACEC000A2101FB04331746A3F130040132F1E7CA
:10ACFC004FF0000A7A1C01F0FB006828174602D1BD
:10AD0C0012F8011BF7E7782909D86F290BD86329AA
:10AD1C0064D021D8252967D0582900F08D803B7844
:10AD2C00002B93D195E770390829F8D801A252F875
:10AD3C0021F000BFC7AE01002BAD01002BAD01000F
:10AD4C0059AE01002BAD01002FAE01002BAD01005F
:10AD5C002BAD010045AE0100642901D06929DED17B
:10AD6C00D8F80020D2F80090111D89EAE972C8F8D1
:10AD7C000010A2EBE9724FF0010B0A21092A37DC13
:10AD8C00D34538BFD3462CB1B9F1000F01DB7207A4
:10AD9C0000D5013CB30702D5BAF1000F03D0F00780
:10ADAC0001D454BB0024B9F1000F2EDAC9F100090B
:10ADBC002D212846FFF7D0FE06F00302022A04D10B
:10ADCC00BAF1000F01D124BB0024CDE90046534653
:10ADDC000A2249462846FFF7D7FEA0E7D8F80030EC
:10ADEC001A1D1978C8F800202846FFF7B5FE96E71B
:10ADFC000BF1010BB2FBF1F2C0E7A345D3D220213A
:10AE0C002846013CFFF7A8FECBE77107D4D52B21D0
:10AE1C00CFE7A345D9D230212846013CFFF79CFE51
:10AE2C00D1E7D8F800100A1DC8F80020CDE900467B
:10AE3C0053460A220968CDE7D8F800100A1DC8F855
:10AE4C0000205346CDE900461022F3E7D8F8003035
:10AE5C001A1DC8F8002016F00106D3F8009024D172
:10AE6C00B9F1000F03D0484601F0F5F90646B4429B
:10AE7C001DD809F1FF3919F8011F00293FF44FAF14
:10AE8C002846FFF769FEF6E728460136FFF764FE11
:10AE9C0019F806100029F7D1A642BFF440AF2021C3
:10AEAC002846013CFFF758FEF6E70026F0E7202184
:10AEBC002846013CFFF750FED9E7D8F800301A1DA0
:10AECC00C8F80020302128461C68FFF745FE782181
:10AEDC002846FFF741FE00220823CDE90032214627
:10AEEC00102277E703B0BDE8F08F00BF2DE9F84FD3
:10AEFC00B0F806A04579D2F800B09DF828900AFB6E
:10AF0C0005F5043D88460BEB0301A94203F104044B
:10AF1C0088BFA5EB030BB4FBFAF607460AFB1644F5
:10AF2C00C2F800B04EB9AAEB04055D4528BF5D46DA
:10AF3C00BBF1000F04D1BDE8F88F3F68013EF1E78B
:10AF4C00043408EB06003C442A46B9F1000F0DD03E
:10AF5C002146ABEB050B01F0D1F9DA452E443F68E5
:10AF6C0055464FF0000428BF5D46E1E701462046F8
:10AF7C00EFE7F8B546790146721E05460023934269
:10AF8C002D6803D30024A64202D8F8BD0133F6E79E
:10AF9C000F682846FFF7ADFD01343946F3E72DE97C
:10AFAC00F041078ACD1C0646FFF77FFD043F3D4468
:10AFBC000446B5FBF7F5D0B14FF48073EDB2C78002
:10AFCC008380013D066080460027AF4210D2304698
:10AFDC00FFF76BFD40B16379013363710137C8F83A
:10AFEC00000006608046F0E72046FFF7C2FF002411
:10AFFC002046BDE8F08101210430FFF738BD10B5C3
:10B00C00012104460430FFF73EFDC0B220B92046B2
:10B01C00BDE81040FFF7ADBF10BD1FB50392002275
:10B02C00009203AAFFF762FF05B05DF804FB1FB5A1
:10B03C0003920122009203AAFFF758FF05B05DF8B6
:10B04C0004FBD1E90032934208BF00230160436046
:10B05C007047436843B10268916852680B4493424D
:10B06C00436004BF002343607047000010B50B4AD7
:10B07C00A2F594739A4201D800200CE0D11A091160
:10B08C0003EBC10453F83110814205D802D204F10C
:10B09C000803EFE7606810BD2246EBE774CC0100B3
:10B0AC0008B5FFF7E3FF024B002808BF184608BDA0
:10B0BC0074CC01007047000007B5044B0093044AA0
:10B0CC00402300F032F803B05DF804FBE1B001005E
:10B0DC00F82C00202DE9F84388461446B2B1104BE9
:10B0EC00104D0326002743F00109224608EB070107
:10B0FC00002000F049FC0744241A60B92B782BB1CE
:10B10C004FF47A40C847013E02D12E70BDE8F88357
:10B11C0001232B70E9E701232B70002CE5D1F5E717
:10B12C0090CC0100382D00207047F0B595B01D462D
:10B13C00164608460C46FFF75EFF1A9B0D93CDE9A9
:10B14C00086500252B46082205A920460A958DF88E
:10B15C002C500C95FFF76BFF079B0293069B0393F8
:10B16C009DF814308DF8115003F00302012A1DD103
:10B17C00BDF81450059EC3F3C203C5F383158DF8B7
:10B18C001030AA0008230EA92046FFF750FFC6F383
:10B19C00952608AB00932A4602AB0EA9304600F068
:10B1AC00EBFA2046FFF72BFF15B0F0BD022AF8D1C1
:10B1BC00BDF81650C3F3C203C5F389158DF81030D2
:10B1CC000827082D2E4628BF08263B4632460EA9D6
:10B1DC002046FFF72CFFAD1B08AB02AA31460EA888
:10B1EC00374400F02DFB002DEBD1DAE7037813F098
:10B1FC00040215D003F00303012B03D0022B09D05A
:10B20C00012070470B6802880233C2F38312134487
:10B21C000B60F5E70B684288023303EB9213F7E7F8
:10B22C00104670472DE9F041434C86B08846002308
:10B23C000546861C0DF1070017468DF80730FFF701
:10B24C0035FB2268C8F80020D4E901130B44013304
:10B25C009B1A9E4218D80022002F69D005F00F05CA
:10B26C00AD0145F0050565F30F022168A3689DF853
:10B27C0007000B4003330E4444F823202660FFF7ED
:10B28C0039FB06B0BDE8F08101212C48FFF7EFFB3C
:10B29C002B48FFF704FC2B48FFF701FC6068D4F83F
:10B2AC000880029000EA0800033004EB800002A939
:10B2BC00FFF79CFF029A08EA020310BB04EB83031E
:10B2CC00911CDB680393013202EA080204EB820250
:10B2DC0003F00303012BD268029121D0022B14D06E
:10B2EC0080461848FFF7DEFB08B1029B63601348E9
:10B2FC004146FFF7BCFBD4E9012313440133226818
:10B30C00A6E7033304EB8300D1E7BDF80E30C3F39B
:10B31C00891303334FEA124801EB93030293E0E7DE
:10B32C00BDF80C30C3F383134FEA12480B44F5E716
:10B33C00AD0545F0060298E73C2D00205831002061
:10B34C00543100205031002030B50A4C71B10A4BF9
:10B35C000A491B1BDA0800239A4201D1002030BD98
:10B36C0031F82350854202D00133F5E7034654F8F7
:10B37C003300F4E704C501008CC50100C82200208D
:10B38C00094B013903EBC000032909D8DFE801F0B0
:10B39C00020A040602207047007970474079704712
:10B3AC00002070470420704704C50100034BD3E90B
:10B3BC000030C31A58425841704700BF3C2D002042
:10B3CC002DE9F04786B0FFF7F1FF002840F08F80A1
:10B3DC007F4DC5F81804BFF34F8F6868AC680290B6
:10B3EC002040033005EB800002A9FFF7FFFE029B13
:10B3FC0018B1D5F81824002A75D003EA04029F1C52
:10B40C00013305EB8202234005EB8303D268DB6832
:10B41C00049302F00303022B039202977AD1BDF836
:10B42C000E306C48C3F38918B8F1500FC14628BFD1
:10B43C004FF0500969F38F1309F10801ADF80E3084
:10B44C00FFF7ADFD0646002800F0AD80FFF7D3FDF9
:10B45C0000233046082203A9FFF7DFFD24EA070387
:10B46C000133B9EB830F4FEA83004BD95FFA89F9AB
:10B47C00002843D004EA0701C4B2A9EB040A033143
:10B48C00A146554C05EB81015FFA8AFA08234A461E
:10B49C003046FFF7C2FD34B109F10803524621468C
:10B4AC003046FFF7BAFD08F1030807EB980702973F
:10B4BC00D5F81834002B62D1D5F81044002C67D184
:10B4CC003046FFF79CFD0DF107008DF80740FFF7A4
:10B4DC00EDF9D5F818340BB9029B6B609DF8070099
:10B4EC00FFF708FA4EE02A689A4204D86A600020F6
:10B4FC0006B0BDE8F08703EA040072E7364904465B
:10B50C008246C3E704EA0701033108234A4605EBE8
:10B51C008101C5E7012B46D1BDF80C302D48C3F392
:10B52C008311062928BF062161F38913023101F02A
:10B53C000F018900ADF80C30FFF731FD064690B3D2
:10B54C00FFF759FD0023082203A93046FFF765FDDC
:10B55C000027BDF80C20C2F38312BB00BA4203F1E2
:10B56C000803A5D902994A1C21400331029205EB2C
:10B57C00810104223046FFF750FD0137E9E73046E0
:10B58C00FFF73DFDFFF712FF80F00100C0B2AFE7FF
:10B59C00E3685B7923B1236831461B6820469847E2
:10B5AC00E3681C688AE7D5F8104454B90B4B0C4877
:10B5BC000C49C01AC008000440F0020000F060F80A
:10B5CC00E0E7236820469B689847E3681C68ECE733
:10B5DC003C2D0020F0C40100482D002004C50100C2
:10B5EC0034C5010035CA01002DE9F74F224E04463F
:10B5FC000F461846924601A901229B46D6F80890A0
:10B60C00FFF710FE019D4FF00008AB1CD84508EB6E
:10B61C00030126D119480021FFF7FAF980F3100035
:10B62C006B1C000440EA144003EA0903E40006EB37
:10B63C00830304F0380405EA090544F00104D860DA
:10B64C00033544EA881496F8203444EA872446F8F3
:10B65C0025401BB1FFF7B4FE0028FBD103B0BDE8B9
:10B66C00F08F01EA090106EB81015AF82820CA6023
:10B67C0008F10108CAE700BF3C2D0020583100201A
:10B68C0000231A46FFF7B0BF07B5CDE9002302230C
:10B69C006A46FFF7A9FF03B05DF804FB38B5084B09
:10B6AC000125D3F8104483F8205404B938BDE3685D
:10B6BC005D71236820465B689847E3681C68F4E773
:10B6CC003C2D002010B5037A052B0C460FD0437A85
:10B6DC0023B1084A08492046FFF730FA07492046AB
:10B6EC00FFF72CFA2046BDE81040FFF71CBA002AE1
:10B6FC00F8D0F3E74ACA01004FCA0100B4C50100F3
:10B70C00C38873B504460D4633B1144A00921449EC
:10B71C00144A2846FFF712FA217A05291CD0637ABD
:10B72C004BB1A088FFF72CFE0F4B104953F820208B
:10B73C002846FFF703FA227A0D4BA08853F82260B3
:10B74C000021FFF701FE0B4903463246284602B0A2
:10B75C00BDE87040FFF7F2B902B070BD4ACA0100F3
:10B76C005ACA010052CA0100A4CC01004FCA010000
:10B77C00C8CC010072CA01002DE9F04385B01F4608
:10B78C000C9D002395F80C902B7306460C469046A6
:10B79C0029463846FFF7B4FFB8F1060F09D8DFE8A1
:10B7AC0008F00412181F2833400031462846FFF7D2
:10B7BC00C5F9002229463846FFF784FF85F80C901E
:10B7CC0005B0BDE8F083226831462846FFF7B6F98C
:10B7DC00EFE7D4E9002331462846FFF7AFF9E8E755
:10B7EC00A3680093D4E9002331462846FFF7A6F955
:10B7FC00DFE7E3680193A3680093D4E900233146A3
:10B80C002846FFF79BF9D4E723690293E368019379
:10B81C00A3680093D4E9002331462846FFF78EF93C
:10B82C00C7E76369039323690293E3680193A368F1
:10B83C000093D4E9002331462846FFF77FF9B8E797
:10B84C0008292DE9F04780460E4617461C4635D888
:10B85C00002593F80C901D7319461046FFF750FF06
:10B86C00AE422DD918F805201B492046FFF766F982
:10B87C000135082DF4D119492046FFF75FF94FF037
:10B88C00000A564523D918F80A507E2D1DD8284693
:10B89C0000F0C2FD002814BF2A462E221049204673
:10B8AC00FFF74CF90AF1010ABAF1080FE9D10122AC
:10B8BC0021463846FFF706FF84F80C90BDE8F08768
:10B8CC0008492046FFF73AF9D2E72E22E6E7064967
:10B8DC002046FFF733F9E5E77CCA010086CA010070
:10B8EC0088CA010082CA010084CA01000369C268C7
:10B8FC0093429CBF81685B18013B981A70472DE9F5
:10B90C00F041D0E902840546A8EB04064068964253
:10B91C0020440F46144404D900F0F0FCEC60BDE860
:10B92C00F0813246A4EB080400F0E8FC686822467B
:10B93C00B919F1E72DE9F843C5680646894617465B
:10B94C004FF000083369B46870689D4228BF1B191A
:10B95C00641BBC4203F1FF3328BF3C465B1B9C427B
:10B96C0028BF1C4649462844224600F0C7FCB36851
:10B97C002544AB4208BF00253F1BA044A144F56001
:10B98C00E0D14046BDE8F883F8B5144B182700FB0E
:10B99C0007751D4407FB00330E46DB6A012B14466A
:10B9AC000AD0022B14D023B92846FFF79FFF8442FC
:10B9BC0008D900242046F8BD2846FFF797FF84429B
:10B9CC0028BF0446224631462846FFF798FFF1E788
:10B9DC002846BDE8F840FFF7ADBF00BF303200206D
:10B9EC00014B1878704700BFA832002007B50849F2
:10B9FC006846FFF726FB019B13B903B05DF804FB07
:10BA0C00D3E9002090476846FFF723FBF3E700BF1C
:10BA1C00DCCC0100FFF7EABF61DF704730B54FF4B3
:10BA2C00FA75ADF5017D0DF1020103A8ADF80250D8
:10BA3C00FFF7F2FF78B901AC0C492046FFF701FB88
:10BA4C006368002BEFD003A8D3E900219047204670
:10BA5C00FFF7FFFAF4E7052805D00DF5017DBDE8E9
:10BA6C003040FEF789BE0DF5017D30BDE8CC0100FC
:10BA7C00024B1B780BB1FFF7D1BF7047A9320020E6
:10BA8C004BDF70471FB501A8FFF7FAFF70B90C49DF
:10BA9C0002A8FFF7D6FA039B002BF4D00198D3E948
:10BAAC000021904702A8FFF7D4FAF4E7052804D048
:10BABC0005B05DF804EBFEF75FBE05B05DF804FB66
:10BACC00F4CC0100002B35D129B9B0FBF2FC0CFBF6
:10BADC00120260467047914215D22DE9F041B2FA3C
:10BAEC0082F39A409940D3F1200C30FA0CFC51EAC5
:10BAFC000C01984000F04EF8280036FA03F20021B1
:10BB0C000023BDE8F081F0B5B1FBF2FC0CFB121187
:10BB1C00B2FA82F39A409940D3F1200630FA06F635
:10BB2C003143984000F036F8614628003200DA4084
:10BB3C000023F0BDF3B5B3FA83FC49085FEA30008B
:10BB4C0013FA0CF3DCF1200432FA04F423430CB4A2
:10BB5C001A0000F01FF80CBC33FA0CF3DCF11F0CCC
:10BB6C0035FA0CF518BF013D03BCA5FB026705FBBC
:10BB7C000377801BB941904271EB030C05D3821AF9
:10BB8C0071EB0303681C0021F0BD02000B002800C0
:10BB9C000021F0BD940D4FF6C2752D02B5FBF4F4E7
:10BBAC00D60A013604FB04F5A5FB0656F64306EB54
:10BBBC000416550832BF00277708013505FB1677A8
:10BBCC00A6FB07477F0807EBC63714001500E7FBF9
:10BBDC0002457F1B4D1C0400E7FB014505FB1206CB
:10BBEC00A64284BF013DB618964224BF0135B61A51
:10BBFC00704700BF10B582B004468DF8071000697D
:10BC0C0078B1D4E900239A4231D26269531C636142
:10BC1C008154D4E90501884229D1204600F02CF842
:10BC2C0025E0E06850B1D4E9002C62451FD2531CCA
:10BC3C00B3EB0C0318BF0B46835418E0A06858B143
:10BC4C00D4E9002C624512D2531CB3EB0C0318BF81
:10BC5C00CBB240F822300AE0236A43B1D4E90001A8
:10BC6C00884204D20DF10701204601229847206832
:10BC7C000130206002B010BD42694AB110B50446D3
:10BC8C00036A002B1CBF216998470020606110BD1E
:10BC9C007047012A0ADB70B514460D46064630463D
:10BCAC002946FFF7A7FF013CF9D870BD7047CB06BA
:10BCBC0005D489054CBF30212021FFF7EABF70471E
:10BCCC0038B5044600F07CFB0546204600212422B2
:10BCDC0000F046FBE56138BD81B070B58BB0144601
:10BCEC000D4606460F930FA8009001A8FFF7E8FF3A
:10BCFC0002950496009A01A8214600F005F80BB0B5
:10BD0C00BDE8704001B070472DE9F04F8BB0049244
:10BD1C00894682460020CAF800000DF1160CACF1E1
:10BD2C0001000190062419F8011B252908D00029CF
:10BD3C0000F06C825046FFF75DFF0DF1160CF2E738
:10BD4C000027494619F8012BA2F12003102B0DD81E
:10BD5C008020DFE803F0091B1B191B1B1B151B1B89
:10BD6C0031181B101B1B120040200DE05E2A0DD158
:10BD7C004FF4805008E0102006E04FF4007003E010
:10BD8C004FF4004000E020200743DAE701F10109FD
:10BD9C00A2F13000C0B209284FF000001BD800EB14
:10BDAC00800002EB4000303819F8012BA2F1300171
:10BDBC00C9B20A29F3D30EE0049850F8042B04906E
:10BDCC00002A104648BF5042102303EAD2621743A0
:10BDDC004A7801F102092E2A0DD1494611F8012B9E
:10BDEC002A2A0BD199F80120049909F1020951F87A
:10BDFC0004BB049117E04FF0000B1DE0A2F13003DF
:10BE0C00DBB2092B4FF0000B13D80BEB8B0302EBBF
:10BE1C004302A2F1300B11F8012BA2F13003DBB27B
:10BE2C000A2BF2D38946BBF1000F05D447F4807777
:10BE3C0002E047F480778946A2F16801CBB2C901D0
:10BE4C0041EA5301C9B209292AD8DFE801F0121ED0
:10BE5C00082929290529290519F8012B20E049462B
:10BE6C0011F8012B6C2A15D199F8012009F102095E
:10BE7C000DE0494611F8012B682A0ED199F80120E2
:10BE8C0009F1020947F008070AE019F8012B47F0FD
:10BE9C00020705E047F0010701E047F00407894677
:10BEAC0020EAE078622A20DDA2F1630015283FF633
:10BEBC003AAFDFE810F03E0017001600160016002F
:10BECC00160017001600160016001600A5004C00F0
:10BEDC001001160016002F00160056001600160052
:10BEEC00220020E747F480473FE0252A00F09780A6
:10BEFC00582A40F09C8147F40057F8054FEA076038
:10BF0C0048BF27F40077782A43F2580126D143F230
:10BF1C00780123E004980468002C04BF4CF62054EC
:10BF2C00C0F20104F805204600F1488100F093F9B5
:10BF3C0047E1049DA8F101062C785046394632465B
:10BF4C00FFF7B5FE50462146FFF754FE4CE1F805CD
:10BF5C004FEA076048BF27F40077302101EAE07010
:10BF6C0004E0F80548BF27F400770020CDE90280F3
:10BF7C0078044FEA877005D4002804980AD4031D6E
:10BF8C0000210DE0002814D4049951F8040B0491FD
:10BF9C00C11716E0073020F0070000F108034168D4
:10BFAC0000687D0715D417F0080514D0C0B2002125
:10BFBC0011E00498073020F00703596853F8080B78
:10BFCC0004937B0709D43B070AD540F3C01140B258
:10BFDC0006E080B20021049325E040F3C03100B2AA
:10BFEC00002907DBBB061CD47B06039D48BF20251C
:10BFFC00039518E00023404263EB01012D2311E06F
:10C00C00049951F8040B04913907DAF8001000F187
:10C01C00FB80BA0752BF0160002206C083E62521CF
:10C02C0088E62B230393FB0548BF27F40077FB0519
:10C03C0058BF4FF0010B00266E2A21DD6F3A092AFA
:10C04C0000F27A80DFE802F005567878787822786A
:10C05C00785650EA01026FD0C20842EA4172134688
:10C06C0064F3DF000CF80600CD08013652EAD1006B
:10C07C004FEAD20040EA457218462946EFD15BE000
:10C08C00582A37D0642A18BF692A55D150EA0102C0
:10C09C0052D00C460546380407D506F00300032899
:10C0AC0002BF2C200CF806000136E04628460A2276
:10C0BC000023FFF707FD00EB8002A5EB420242F0E4
:10C0CC00300208F806200136D5F109020022A241FF
:10C0DC00C446DED330E03806232101EAE070CDE916
:10C0EC000280049947F4807751F8040B04910021E5
:10C0FC004FF0080B002650EA01021DD0BA044CF692
:10C10C000052C0F201025CBF4CF61052C0F20102A8
:10C11C00030943EA017500F00F002B46105C0CF884
:10C12C0006000C09013655EA11104FEA151040EAC9
:10C13C00047518462146EED1DDE902254FF0FF309B
:10C14C00FF2D88BF0138ABEB060121EAE17806EB45
:10C15C000801A2EB010B002D18BF8344B80506D4CF
:10C16C00504639465A46FFF7A2FD4FF0000BFF2D03
:10C17C00019C04D9290A5046FFF73CFD00E01DB193
:10C18C0050462946FFF736FD504639465A46FFF7CA
:10C19C008EFD504630214246FFF77BFD012E05DB1C
:10C1AC00A15D5046FFF726FD013EF9D80DF1160CA6
:10C1BC000624F8067FF5B7AD5A461EE0594600F046
:10C1CC005FF8054627F40077A8EB00065046394681
:10C1DC003246FFF76CFD35B114F8011B5046FFF7E2
:10C1EC0009FD013DF8D1049D043504950DF1160CA3
:10C1FC000624F8067FF597AD324650462021FFF70E
:10C20C0048FD0DF1160C8EE501708CE5DAF80C008A
:10C21C0028B1DAE9001291423CBF00224254504648
:10C22C00FFF72AFDDAF800000BB0BDE8F08F002A0A
:10C23C007FF479AD5046FFF71FFD4FF0FF30F3E769
:10C24C00082907D343F2AC22C2F20002106000228C
:10C25C00C0E900217047017881B100214FF0013213
:10C26C004358C2FA53F30431002BF9D093FAA3F0DC
:10C27C00B0FA80F001EBD000043870470020704712
:10C28C0000291CBF0278002A01D10020704700B59C
:10C29C00D0F800E00429034609D34FF0013CCCFA56
:10C2AC005EF222B9043953F804EF0329F7D8181AAF
:10C2BC004FF00132C2FA5EF292FAA2F2B2FA82F2B4
:10C2CC00B1EBD20F88BFD108084400BD0246F0B4D0
:10C2DC004FF00137FB0151F8044BE51BA5431D4002
:10C2EC0002D142F8044BF6E70439F0BC11F8013BDB
:10C2FC0002F8013B002BF9D1704700BF5AB38446BA
:10C30C0090EA01039B071FD1830707D011F8013B6B
:10C31C0000F8013B013AF7D11CE08446203A09D3DE
:10C32C002DE9F007B1E8F807A0E8F807203AF9D2B0
:10C33C00BDE8F0071C3205D451F8043B40F8043B2F
:10C34C00043AF9D2043205D011F8013B00F8013B54
:10C35C00013AF9D16046704700220B0011001A0017
:10C36C0084465AB3830704D000F8011B013AF9D173
:10C37C0024E0C9B241EA012141EA0141202A11D34A
:10C38C00203A2DE9F0030B460C460D460E460F469F
:10C39C0088468946A0E8FA03203AFBD2BDE8F003B0
:10C3AC0020320BD0042A05D340F8041B043A05D0E4
:10C3BC00042AF9D200F8011B013AFBD16046704700
:10C3CC0043F2B020C2F200000068002804BF42F221
:10C3DC00E020C2F20000704784460020002918BFFC
:10C3EC00002A0ED0097848B200280BD4BCF1000FFB
:10C3FC0018BFCCF800100021C3E90011002818BFA9
:10C40C00012070476FF0010070477F298EBF6FF0DD
:10C41C00010001700120704743F2B021C2F200010B
:10C42C000968002904BF42F2E021C2F20001496808
:10C43C0089680A68092110477F280BD84CF6BC6222
:10C44C00C0F20102105C4CF63C72C0F20102515C6D
:10C45C000840704700207047A0F161011A2938BFCD
:10C46C0020387047A0F141011A2938BF40F0200054
:10C47C0070477F280BD84CF6BC62C0F20102105CEE
:10C48C004CF63C72C0F20102515C0840704700202F
:10C49C007047A0F161011A2938BF20387047A0F10C
:0CC4AC0041011A2938BF40F02000704701
:08C4B8006DA00100000000006E
:10C4C000119F0100000000006596010000000000BF
:08C4D000F99D010000000000CD
:08C4D800EDA0010000000000CE
:10C4E0007DBA01000000000091BA010000000000C8
:10C4F00060310020283200203032002068310020D6
:04C50000180000001F
:10C504000FC601000000000015C601000000000075
:10C51400F0C50100000003031CC601000000000078
:10C5240020C601000000000025C601000000000034
:10C5340046CA0100000003032BC6010000000000EE
:10C544004FC601000000000001C601000000000009
:10C5540009C6010000000000F4C501000000030347
:10C56400D6CA010000000303DECA01000000030371
:10C57400EACA01000000030359C6010000000000DC
:08C5840062C601000000000086
:10C58C0098CC01000000000025CA0100D822002030
:10C59C00644246533A202D696E660D0A0064424689
:10C5AC00533A2025642E25640D0A0050444D204D2D
:10C5BC006963206442204C6576656C204D6F6E6912
:10C5CC00746F720D0A0046756E6374696F6E3A2053
:10C5DC0025732C206572726F7220636F64653A202C
:10C5EC0025732E0050444D006E72665F626C655F61
:10C5FC006761747400626C655F6E757300636C6F59
:10C60C00636B00434C4F434B004750494F5445001C
:10C61C0050525300554152540055415254450061FB
:10C62C0070705F627574746F6E00466174616C201B
:10C63C006572726F720053797374656D20726573D5
:10C64C006574006170705F74696D657200707772EB
:10C65C005F6D676D7400736F72746C697374004EE8
:10C66C0052465F53554343455353004E52465F4524
:10C67C0052524F525F5356435F48414E444C4552C1
:10C68C005F4D495353494E47004E52465F455252F7
:10C69C004F525F534F46544445564943455F4E4FA6
:10C6AC00545F454E41424C4544004E52465F455204
:10C6BC00524F525F494E5445524E414C004E5246D9
:10C6CC005F4552524F525F4E4F5F4D454D004E529B
:10C6DC00465F4552524F525F4E4F545F464F554E38
:10C6EC0044004E52465F4552524F525F4E4F545F7C
:10C6FC00535550504F52544544004E52465F45528C
:10C70C00524F525F494E56414C49445F5041524141
:10C71C004D004E52465F4552524F525F494E564164
:10C72C004C49445F5354415445004E52465F455268
:10C73C00524F525F494E56414C49445F4C454E470F
:10C74C005448004E52465F4552524F525F494E5626
:10C75C00414C49445F464C414753004E52465F455D
:10C76C0052524F525F494E56414C49445F444154DA
:10C77C0041004E52465F4552524F525F4441544124
:10C78C005F53495A45004E52465F4552524F525FD5
:10C79C0054494D454F5554004E52465F4552524FE9
:10C7AC00525F4E554C4C004E52465F4552524F52C2
:10C7BC005F464F5242494444454E004E52465F45F7
:10C7CC0052524F525F494E56414C49445F4144448A
:10C7DC0052004E52465F4552524F525F425553598A
:10C7EC00004E52465F4552524F525F434F4E4E5F82
:10C7FC00434F554E54004E52465F4552524F525F76
:10C80C005245534F5552434553004E52465F455285
:10C81C00524F525F4D4F44554C455F4E4F545F49FC
:10C82C004E495449414C495A4544004E52465F4585
:10C83C0052524F525F4D555445585F494E49545FC3
:10C84C004641494C4544004E52465F4552524F5268
:10C85C005F4D555445585F4C4F434B5F4641494CD7
:10C86C004544004E52465F4552524F525F4D55540F
:10C87C0045585F554E4C4F434B5F4641494C4544E0
:10C88C00004E52465F4552524F525F4D55544558DB
:10C89C005F434F4E445F494E49545F4641494C45B6
:10C8AC0044004E52465F4552524F525F4D4F4455D5
:10C8BC004C455F414C52454144595F494E4954499E
:10C8CC00414C495A4544004E52465F4552524F52D4
:10C8DC005F53544F524147455F46554C4C004E52A6
:10C8EC00465F4552524F525F4150495F4E4F545F25
:10C8FC00494D504C454D454E544544004E52465FB3
:10C90C004552524F525F464541545552455F4E4F2A
:10C91C00545F454E41424C4544004E52465F455291
:10C92C00524F525F494F5F50454E44494E47004E5F
:10C93C0052465F4552524F525F4452565F545749CC
:10C94C005F4552525F4F56455252554E004E52461D
:10C95C005F4552524F525F4452565F5457495F45A0
:10C96C0052525F414E41434B004E52465F4552522C
:10C97C004F525F4452565F5457495F4552525F4481
:10C98C004E41434B004E52465F4552524F525F420E
:10C99C004C455F495053505F52585F504B545F5455
:10C9AC0052554E4341544544004E52465F455252F7
:10C9BC004F525F424C455F495053505F4348414E84
:10C9CC004E454C5F414C52454144595F4558495383
:10C9DC005453004E52465F4552524F525F424C45A3
:10C9EC005F495053505F4C494E4B5F444953434F42
:10C9FC004E4E4543544544004E52465F4552524FAD
:10CA0C00525F424C455F495053505F504545525F11
:10CA1C0052454A4543544544007274745F6C6F67C9
:10CA2C005F6261636B656E64004261636B656E642B
:10CA3C007320666C757368656400617070001B5BB5
:10CA4C00306D002573001B5B313B33316D0025735A
:10CA5C004C6F67732064726F707065642028256456
:10CA6C002925730D0A003C25733E2025733A2000BE
:10CA7C00202530327800202020007C002563001B0C
:10CA8C005B313B33306D001B5B313B33326D001B34
:10CA9C005B313B33336D001B5B313B33346D001B1F
:10CAAC005B313B33356D001B5B313B33366D001B0B
:10CABC005B313B33376D007761726E696E6700696D
:10CACC006E666F006465627567006E72665F736494
:10CADC0068006E72665F7364685F626C65006E728C
:10CAEC00665F7364685F736F630000000000000092
:10CAFC00000000000338FDD8704700000020004003
:10CB0C00000000000100070800004008282806006B
:10CB1C006E7266785F70646D5F7374617274006EB0
:10CB2C007266785F70646D5F696E69740030313263
:10CB3C0033343536373839414243444546000000DA
:10CB4C00000000006BC601000100000077C6010068
:10CB5C000200000095C6010003000000B6C60100EB
:10CB6C0004000000C9C6010005000000DAC601007F
:10CB7C0006000000EEC601000700000006C7010019
:10CB8C00080000001EC701000900000036C70100A4
:10CB9C000A0000004FC701000B00000067C701002E
:10CBAC000C0000007EC701000D00000092C70100C0
:10CBBC000E000000A4C701000F000000B3C7010065
:10CBCC0010000000C7C7010011000000DEC7010003
:10CBDC0012000000EDC701001300000002C80100A4
:10CBEC008000000016C801008100000037C8010059
:10CBFC008200000053C80100830000006FC80100D0
:10CC0C00840000008DC8010085000000AEC8010042
:10CC1C0086000000D3C8010090000000EAC80100A3
:10CC2C009100000008C901009200000026C9010013
:10CC3C00008200003BC901000182000059C90100BB
:10CC4C000282000075C901000084000091C9010036
:10CC5C0001840000B5C9010002840000DFC9010095
:10CC6C000384000004CA0100556E6B6E6F776E2052
:10CC7C006572726F7220636F6465000000000000C3
:10CC8C00000000000338FDD870470000C5B001005B
:10CC9C0035B10100C1B001004ACA01008BCA0100C4
:10CCAC0052CA010093CA01009BCA0100A3CA010029
:10CCBC00ABCA0100B3CA0100BBCA010000000000EE
:10CCCC003CC60100C3CA0100CBCA0100D0CA010096
:10CCDC00E0C40100F0C4010008000000C0C4010061
:10CCEC00D8C4010008000000B8C40100C0C4010091
:10CCFC000800000030313233343536373839414290
:10CD0C004344454630313233343536373839616235
:10CD1C0063646566286E756C6C290000EDCD0100AE
:10CD2C0064CE0100F0CD010053756E646179004D45
:10CD3C006F6E646179005475657364617900576531
:10CD4C00646E65736461790054687572736461799B
:10CD5C00004672696461790053617475726461791B
:10CD6C0000004A616E756172790046656272756188
:10CD7C007279004D6172636800417072696C004D8C
:10CD8C006179004A756E65004A756C79004175676A
:10CD9C007573740053657074656D626572004F63D2
:10CDAC00746F626572004E6F76656D6265720044D9
:10CDBC006563656D6265720000414D00504D000069
:10CDCC00256D2F25642F25790025483A254D3A25C8
:10CDDC0053002561202562202565202554202559E6
:10CDEC000043000045C4010065C4010071C401008A
:10CDFC007FC401009FC40100ABC4010017C4010033
:10CE0C00E5C3010053756E004D6F6E0054756500DF
:10CE1C00576564005468750046726900536174006C
:10CE2C00004A616E00466562004D6172004170728D
:10CE3C00004D6179004A756E004A756C004175674A
:10CE4C0000536570004F6374004E6F760044656349
:10CE5C0000002E00000000005ECE010060CE01003C
:10CE6C0060CE010060CE010060CE010060CE0100FA
:10CE7C0060CE010060CE010060CE010060CE0100EA
:10CE8C00FFFFFFFFFFFFFFFFFFFFFFFFFFFF0000A4
:10CE9C0034CD010010CE01006ECD01002DCE01006D
:10CEAC00C5CD0100CCCD0100D5CD0100DECD0100FA
:10CEBC0020202020202020202068282828282020FE
:10CECC002020202020202020202020202020202056
:10CEDC00481010101010101010101010101010100E
:10CEEC0084848484848484848484101010101010AE
:10CEFC001081818181818101010101010101010107
:10CF0C0001010101010101010101011010101010BA
:10CF1C0010828282828282020202020202020202D7
:10CF2C00020202020202020202020210101010207F
:0DCF3C000007032004170201085710408071
:10CF4C00010000000090D00300100140110004000B
:10CF5C0000000000FF00000028CD010028CD0100DA
:0CCF6C0028CD010028CD010028CD0100D7
:04000003100092490E
:00000001FF
